:020000040800F2
:10500000E0080020799B0008819B0008839B000832
:10501000859B0008879B0008899B00080000000012
:105020000000000000000000000000008B9B000852
:105030008D9B0008000000008F9B0008919B0008DA
:10504000939B0008939B0008939B0008939B000888
:10505000939B0008939B0008EB510008939B00086A
:10506000939B0008939B0008939B0008939B000868
:10507000939B0008939B0008939B0008939B000858
:10508000939B0008939B0008939B0008939B000848
:10509000939B0008939B0008939B0008939B000838
:1050A000939B0008939B0008939B0008939B000828
:1050B0004F52000869540008939B0008939B000816
:1050C000939B0008939B0008939B0008939B000808
:1050D000939B00088F5A0008939B0008939B00083D
:1050E000939B0008939B0008939B0008DFF80CD06B
:1050F00005F0A8F800480047215B0008E008002000
:105100001CB5012002F049FB0021012002F0A2FFA2
:105110000120009000208DF804000C208DF805007F
:1051200001208DF80600684602F0C0FA1CBD1CB5CF
:105130004FF4A06002F016F81C208DF80000022049
:105140008DF801008DF8020001208DF803006846FB
:1051500002F00DF81D208DF8000003208DF80100ED
:105160008DF8020001208DF80300684601F0FFFF72
:1051700025208DF8000001208DF801008DF8020037
:105180008DF80300684601F0F2FF06208DF800005C
:1051900000208DF801008DF8020001208DF8030039
:1051A000684601F0E4FF4FF40050ADF80400102011
:1051B0008DF8070002208DF8060001A9E14802F0F1
:1051C00033FE0D21DF4802F0DCFE0120ADF80400C3
:1051D00048208DF8070003208DF8060001A9D94862
:1051E00002F022FEFFF78CFF1CBD10B5012002F07B
:1051F000C3FA20B1012002F0D0FA01F006FD10BD83
:10520000D148007810B3D148007880B9D0480088E0
:1052100064304FF08041A1F84000CD48008841F251
:105220003011884212DB0120C84908700EE0C848DE
:10523000008864384FF08041A1F84000C4480088DD
:10524000B0F5C86F02DC0020C049087070472DE936
:10525000FF470121880704F086F900287DD001214D
:10526000880704F091F9BB48007800283BD1BA4880
:10527000007800BBB9480078B9490978CDE9021037
:105280000021B8480A460346CDE900100846B64951
:1052900001F0ACF9B248007808BBB04800780728A4
:1052A0001DD10021B14A1160516000209060D06092
:1052B0001061506113E0A848007801280FD1AC4874
:1052C000A0F10C01A0F11802A0F12804CDE9002101
:1052D0000290E368A2686168206801F037F9002055
:1052E000A449087070E09B48007801286CD19A4866
:1052F000007878B99948007899490978CDE9021081
:105300000020984902460B46CDE90001964901F07C
:105310006DF913E09048007801280FD19448A0F16E
:105320000C01A0F11802A0F12804CDE9002102909F
:10533000E368A2686168206801F008F98E48007887
:105340008E490978884204D1002082490870894931
:10535000087089480078D0B900E083E04FF0000A77
:1053600012E00AEB0A11864A02EB81017B4A1278AD
:1053700051F8220004F037FE824A02EBCA0203C24F
:105380000AF1010000F0FF0ABAF1030FE9DB4FF068
:10539000000A11E07B4800EBCA00D0E90043224636
:1053A0000020794904F0F7FC704A02EBCA0203C2FC
:1053B0000AF1010000F0FF0ABAF1030FEADB6E48C0
:1053C0000078401C6C4908707049086804F0CDFDF5
:1053D00004460D466548D0E90063324600206C491A
:1053E00004F032FC804622462B4604F02DFCCDE929
:1053F000020104F0DFFD4FF0804188866349486870
:1054000004F0B3FD04460D465848D0E90263324625
:1054100000205F4904F018FC804622462B4604F029
:1054200013FCCDE9020104F0C5FD4FF0804108876F
:105430005649886804F099FD04460D464B48D0E96A
:10544000046332460020524904F0FEFB80462246A7
:105450002B4604F0F9FBCDE9020104F0ABFD4FF05F
:1054600080418887BDE8FF8710B50121494804F0D5
:105470007AF8002865D00121464804F085F84648AE
:105480000078012808D10020434908700C2001F061
:1054900041FE4249087008E03F480078012804DDD9
:1054A0003D480078401E3C4908703D480088401C3B
:1054B0003B49088008460088FA2190FBF1F201FB85
:1054C000120020BB37480078012808D14FF4C041B2
:1054D0001C4802F056FD00203249087026E01F48A3
:1054E0000078072805D14FF4C041164802F04BFD63
:1054F0001CE01A48007807280ADA4FF400511148D6
:1055000002F03FFD4FF480410E4802F03CFD0DE0FB
:1055100012480078072809DD4FF40051094802F0CD
:1055200032FD4FF48041074802F02BFD1C480088F3
:1055300044F62061884204D100201B4908701849B4
:10554000088010BD001001400B0000200A00002060
:105550004000004014000020110000201300002033
:1055600012000020000024400000F03F1002002044
:105570005C0200201800002015000020160000200A
:1055800010A600085001002000003440280200202E
:105590000070A740000400401B0000201A000020FB
:1055A0000E000020100000200C00002000B587B085
:1055B000012140F65D0002F0F3FE40F2E730ADF865
:1055C00014001720ADF810000020ADF81600ADF85B
:1055D00012008DF8180004A9624803F09FF9012118
:1055E000604803F0F7FD08215E4803F023FE4FF406
:1055F0000060ADF800004010ADF802000020ADF8EA
:105600000400ADF80600ADF808004FF40050ADF806
:105610000A004000ADF80C006946524803F09AFCBD
:105620000121504803F0D6FC07B000BD00B589B099
:1056300001214D4802F0C9FC01214C4802F0C5FC93
:1056400040F60840ADF8040018208DF8070001204E
:105650008DF8060001A9464802F0E6FB4FF4004031
:10566000ADF8040018208DF8070001208DF8060021
:1056700001A9404802F0D8FB0121084602F09DFE36
:1056800049F64040ADF81C002320ADF8180000207A
:10569000ADF81E00ADF81A0006A94FF0804003F0E7
:1056A0003DF96020ADF808000120ADF80A0040F691
:1056B000B830ADF80E000020ADF8100002A94FF090
:1056C000804003F068F90821C80603F0B3FD02A981
:1056D0004FF0804003F0A1F90821C80603F0B3FDA4
:1056E00002A94FF0804003F0E5F90821C80603F055
:1056F000B7FD0121880703F06DFD0121880703F044
:105700002FFF01221146900703F07FFC012188073B
:1057100003F060FC09B000BD3EB504460121022043
:1057200002F04BFE144803F025F8ADF80440472082
:10573000ADF800000020ADF80600ADF802006946A3
:105740000D4803F0EBF801210B4803F009FF01229B
:105750001146094803F059FC0121074803F03AFCBF
:105760003EBD0000002C0140000430000003180082
:10577000000C0140000801400004004000B585B065
:105780000121880302F00CFE0120DF4908724FF46A
:10579000E13001900020ADF80800ADF80A00ADF846
:1057A0000C00ADF810000C20ADF80E0001A9D74890
:1057B00003F031FF012240F22661D44803F0C3FF19
:1057C0000121D24803F0B3FF4FF40070ADF80000A0
:1057D00018208DF8030002208DF802006946CC489D
:1057E00002F022FB4FF48060ADF8000002208DF83B
:1057F000020004208DF803006946C54802F014FB3E
:1058000005B000BD70B504460D46BF48007A0128BA
:1058100028D1BD4885800146888804F05DFDBA49DD
:1058200008600020C8800CE0B748C088205CB649FA
:105830000968B54AD2888854B348C088401CB24928
:10584000C880B148C088B04989888842ECDBAE483E
:1058500000680178AD4803F0D7FF0120AA49C8804D
:105860000020087270BD1CB50446002C04DBA9485A
:1058700000788DF8000004E02D208DF800006042D3
:1058800004B242F2107094FBF0F0A249085C8DF86B
:10589000010042F2107094FBF0F100FB11404FF454
:1058A0007A7190FBF1F09B49085C8DF802004FF48F
:1058B0007A7094FBF0F100FB1140642190FBF1F051
:1058C0009449085C8DF80300642094FBF0F100FB20
:1058D00011400A2190FBF1F08E49085C8DF804001C
:1058E0000A2094FBF0F100FB11408A49085C8DF816
:1058F00005000A208DF8060007216846FFF782FFA1
:105900001CBD7FB505460C460021284604F0CAFBA5
:1059100004D8804800788DF8000004E02D208DF830
:10592000000085F00045284604F030FBC0B2642139
:1059300090FBF1F07749085C8DF80100284604F0EF
:1059400025FBC0B2642190FBF1F201FB12000A2199
:1059500090FBF1F06F49085C8DF80200284604F0D6
:1059600015FBC0B20A2190FBF1F201FB120069495C
:10597000085C8DF803002E208DF804006649284647
:1059800004F030F9064604F001FBC0B20A2190FB96
:10599000F1F201FB12005F49085C8DF805005F49D8
:1059A000284604F01FF9064604F0F0FAC0B20A21B6
:1059B00090FBF1F201FB12005649085C8DF80600DD
:1059C0002C208DF807000021204604F06BFB04D842
:1059D000504800788DF8080004E02D208DF808006C
:1059E00084F00044204604F0D1FAC0B2642190FB58
:1059F000F1F04849085C8DF80900204604F0C6FA29
:105A0000C0B2642190FBF1F201FB12000A2190FB6D
:105A1000F1F04049085C8DF80A00204604F0B6FA1F
:105A2000C0B20A2190FBF1F201FB12003949085C77
:105A30008DF80B002E208DF80C003749204604F01D
:105A4000D1F8064604F0A2FAC0B20A2190FBF1F2A6
:105A500001FB12002F49085C8DF80D002F492046EC
:105A600004F0C0F8064604F091FAC0B20A2190FB97
:105A7000F1F201FB12002749085C8DF80E000A20A4
:105A80008DF80F0010216846FFF7BCFE7FBD10B5F2
:105A900040F225511D4803F03BFF60B140F2255113
:105AA0001A4803F05FFF194803F0B2FEC4B2214662
:105AB000164803F0A9FE40F22661144803F028FFBF
:105AC00008B340F22661114803F04CFF0E48007AFB
:105AD000C8B90D48C0880C498988884206D1012080
:105AE00009490872086804F0CFFB0CE0064800681A
:105AF000054AD288815C054803F086FE0248C088CA
:105B0000401C0149C88010BD6400002000380140DD
:105B10000008014044A30008000020410000C842E2
:105B200000211D4803F056FA00214FF0804003F099
:105B300051FA0021194803F04DFA4FF4A0414FF0FB
:105B4000006001F046FB01F03DFA01F0A9FAFFF711
:105B50002DFDFFF76BFDC820FFF7DEFD01F02EF9EC
:105B600001F04EF9FFF70AFEFFF7E1FA00F0A6FD9B
:105B7000032001F083F800F0A8FE28B14FF4005193
:105B8000074802F000FA04E04FF40051044802F024
:105B9000F8F900BFFEE70000002C014000040040BF
:105BA0000010014000204EE00022FE4B03EBC0033A
:105BB0001A605A60FC4B03EBC0031A605A60FB4B3F
:105BC00003EBC0031A605A60F94B03EBC0031A6081
:105BD0005A600021F74B03EBC00319605960F64B84
:105BE00003EBC00319605960F44B03EBC0031A6068
:105BF0005A60F34B03EBC0031A605A60F14B03EB9E
:105C0000C0031A605A60F04B03EBC0031A605A607D
:105C1000EE4B03EBC00319605960ED4B03EBC0037F
:105C200019605960EB4B03EBC0031A605A60EA4BF2
:105C300003EBC0031A605A60E84B03EBC003196022
:105C40005960411CC8B20328AEDB0021E44B9960C7
:105C5000D96000221A615A619A61DA611A635A6343
:105C600070472DE9F04F8DB005460E469146002451
:105C700070E0D24800EBC400D0E900733A4600203F
:105C80004FF0804104F087F8CDE9040109EBC4012D
:105C9000C64800EBC400D1E900733A46D0E900A140
:105CA000504604F072F82A463346CDE9000104F06C
:105CB00072F8CDE90201DDE9042303F0C5FFC94A0A
:105CC000C94BCDE908012846314604F064F8CDE916
:105CD0000601DDE9082304F05EF8CDE90A01B748C2
:105CE00000EBC400D0E900733A460A9804F050F87B
:105CF000B04A02EBC40203C2AE4800EBC400D0E9D4
:105D000000733A46B748B84904F045F88246A748B8
:105D100000EBC400D0E900733A46504603F094FF0C
:105D2000A04A02EBC40203C2A24800EBC400D0E9BF
:105D30000010A24A02EBC402C2E90010994800EB2D
:105D4000C400D0E90010994A02EBC402C2E9001075
:105D5000601CC4B2032C8CDB0DB0BDE8F08F2DE9C4
:105D6000F04F8DB005460E469146002476E00022A5
:105D70004FF080432846314604F00DF882469048A3
:105D800000EBC400D0E900733A46504604F003F833
:105D9000CDE9060109EBC400D0E90073844800EBAB
:105DA000C401D1E900A13A46504603F0EEFF2A466D
:105DB0003346CDE902012846314603F0ECFFCDE938
:105DC0000001DDE9022303F0E6FFCDE90401DDE98E
:105DD000062303F039FF834A834BCDE9080103F022
:105DE000DAFFCDE90A01754800EBC400D0E9007381
:105DF0003A460A9803F0CCFF6F4A02EBC40203C292
:105E00006D4800EBC400D0E900733A467548764906
:105E100003F0C1FF82468B46654800EBC401D1E91F
:105E200000733A465046594603F00EFF5E4A02EBB5
:105E3000C40203C2604800EBC400D0E90010604A0D
:105E400002EBC402C2E90010574800EBC40103C9C9
:105E5000574A02EBC40203C2601CC4B2032C86DBA7
:105E60000DB0BDE8F08F2DE9F04F93B004460D461C
:105E7000904699464FF0000A0DE01C9800EBCA00CE
:105E8000D0E90010564A02EBCA02C2E900100AF13A
:105E9000010000F0FF0ABAF1030FEEDB4FF0010A38
:105EA00027E04FF0000B1DE0DA4517D04C4800EB1F
:105EB000CA0003C8CDE90801494800EBCB0003C87C
:105EC000CDE90601DDE9082303F05FFF0AEB4A0292
:105ED000434B03EBC20202EBCB0203C20BF1010006
:105EE00000F0FF0BBBF1030FDEDB0AF1010000F055
:105EF000FF0ABAF1030FD4DB4FF0000A14E0324876
:105F000000EBCA0103C902460B46CDE90801002097
:105F10004FF0804103F03FFF0CAA02EBCA0203C21C
:105F20000AF1010000F0FF0ABAF1030FE7DB4FF0BE
:105F3000000A33E04FF0000B29E0D34523D022487C
:105F400000EBCB0003C8CDE906010CA800EBCA01A9
:105F500003C9CDE90401DDE9062303F016FFCDE90D
:105F600008010AEB4A001E4901EBC00000EBCB0020
:105F700003C8CDE90601DDE9082303F009FF0CAAF7
:105F800002EBCA0203C20BF1010000F0FF0BBBF1F0
:105F9000030FD2DB0AF1010000F0FF0ABAF1030F90
:105FA000C8DB23E078000020F000002090000020F3
:105FB00008010020A800002020010020C0000020CF
:105FC00038010020B0010020C8010020E0010020BD
:105FD000F80100201002002050010020D80000200D
:105FE000680100207B14AE47E17A943FFD4AFE4BE6
:105FF0002046294603F0CFFE22462B46CDE9080174
:1060000003F0C9FECDE90A01F64AF84B20462946BD
:1060100003F0C1FE06460F464FF0000A6BE0424611
:106020004B46F348F34903F0B6FECDE90201F248CE
:1060300000EBCA0003C8CDE90001DDE9022303F04B
:10604000A4FE32463B46CDE9040103F0A4FECDE9AF
:1060500008010CA800EBCA0003C8CDE90201DDE984
:106060000A2303F098FECDE90401E34800EBCA00DF
:1060700003C8CDE90201DDE9042303F086FECDE982
:106080000601DDE9082303F080FEDC4A02EBCA02C8
:1060900003C2DA4800EBCA0003C802460B46CDE94A
:1060A0000601D048D04903F076FECDE90801D44876
:1060B00000EBCA0103C9CDE90601DDE9082303F0BD
:1060C000C3FDD04A02EBCA0203C2CC4800EBCA01AE
:1060D00003C9C94A02EBCA0203C2CA4800EBCA009C
:1060E000D0E90010C64A02EBCA02C2E900100AF168
:1060F000010000F0FF0ABAF1030F90DB13B0BDE816
:10610000F08F2DE9F04F89B006460F4607E0B84AF8
:10611000B84B3046394603F038FE06460F46B44ABF
:10612000B44B3046394603F089FFF0D907E0B04A56
:10613000B04B3046394603F087FD06460F46002235
:1061400013463046394603F061FFF0D30022134670
:106150003046394603F072FF39D8AB4AAB4B304674
:10616000394603F053FF32D232463B463046394679
:1061700003F011FE32463B46CDE9000103F00BFE71
:10618000824632463B4603F006FE0022A04BCDE994
:10619000020103F072FE00229E4BCDE9060130465B
:1061A000394603F0F8FD32463B46CDE9020103F0E3
:1061B000F2FD82460022984B03F0EAFDCDE904018E
:1061C000DDE9062303F040FD80468946CBE08E4A98
:1061D0008E4B3046394603F031FF41D88A4A8F4B07
:1061E0003046394603F012FF3AD2874A8B4B30468D
:1061F000394603F0CDFD04460D4622462B46204687
:10620000294603F0C8FD824622462B4603F0C3FD13
:1062100022462B46CDE9000103F0BDFD00227C4B58
:10622000CDE9020103F029FE22462B46CDE9060105
:106230000020784903F0AFFD824622462B4603F04A
:10624000AAFD0022744BCDE9020103F09EFDCDE9C9
:106250000401DDE9062303F098FD8046894682E0CB
:10626000694A6E4B3046394603F0E8FE41D86C4A25
:106270006C4B3046394603F0C9FE3AD2624A674B4E
:106280003046394603F081FD04460D4622462B4632
:106290002046294603F07FFD22462B46CDE900012A
:1062A00003F079FD824622462B4603F074FD00225E
:1062B000574BCDE9020103F0E0FD22462B46CDE924
:1062C00006010020534903F066FD22462B46CDE926
:1062D000020103F060FD824600224F4B03F055FDA2
:1062E000CDE90401DDE9062303F04FFD8046894630
:1062F00039E0454A3F4B3046394603F049FD0446F4
:106300000D4622462B462046294603F044FD2246F0
:106310002B46CDE9000103F03EFD22462B46CDE998
:10632000020103F038FD82460022394B03F0A5FD3F
:1063300022462B46CDE906010020364903F02BFD0D
:10634000824622462B4603F026FD0022324BCDE941
:10635000020103F01DFDCDE90401DDE9062303F090
:1063600073FC804689464046494609B0BDE8F08F37
:106370002DE9F04F8FB004460D4616461F461C9A75
:10638000DDE91801FFF76DFC1D9ADDE91A01FFF741
:10639000E6FC1E9832463B46009020462946FFF711
:1063A00062FD1822164906A803F00AFC4FF0000807
:1063B0004FE006A908F1010001EBC000D0E900930D
:1063C00006A800EBC8004A46D0E900B1584603F0E1
:1063D0001DFE3AD206A800EBC80003C8CDE90C01A7
:1063E00006A921E07B14AE47E17A943FE17AB43FFD
:1063F00044174154FB211940F8010020E00100201E
:10640000C8010020B001002050455254FB21F93F43
:10641000000038400000E03F0000F03FFB21094051
:10642000FCB33D7F7CD9124008F1010001EBC001B3
:1064300003C906AA02EBC80203C206AB08F10102B7
:1064400003EBC202DDE90C0103C208F1010000F018
:10645000FF08B8F1020FACDB8C4A8D4BDDE90A91E5
:10646000484603F0EBFD3CD233E04FF000082DE04E
:10647000884800EBC800854A854BD0E90091484622
:1064800003F083FC834A02EBC80203C2824800EB9C
:10649000C8007E4A7E4BD0E90091484603F075FC67
:1064A0007D4A02EBC80203C206A800EBC801D1E98D
:1064B0000091764A764B484603F067FC06AA02EB49
:1064C000C80203C208F1010000F0FF08B8F1030F91
:1064D000CEDB6E4A6E4BDDE90A91484603F0AEFD15
:1064E000C3D34FF000082BE06B4800EBC800D0E9A5
:1064F00000211046FFF705FECDE90001674800EBDB
:10650000C800D0E900934A46009803F044FCCDE966
:106510000201634800EBC800D0E900934A460298A4
:1065200003F092FB00225F4BCDE9040103F033FC42
:106530005D4A02EBC80203C208F1010000F0FF0847
:10654000B8F1030FD0DB0FB0BDE8F08F2DE9FF4F9E
:106550009FB0894692469B46002400BF1BE02C99C1
:1065600051F8240003F03FFD18AA02EBC40203C255
:106570002D9951F8240003F036FD12AA02EBC40253
:1065800003C22E9951F8240003F02DFD0CAA02EB52
:10659000C40203C2641C032CE1DB584603F023FD54
:1065A000CDE90A01504603F01EFD05460E46484659
:1065B00003F019FDCDE908011F9803F014FD07460B
:1065C00088460CA812A918AACDE904210690DDE995
:1065D0000A01CDE90056CDE9020138464146DDE920
:1065E0000823FFF7C5FE23B0BDE8F08F2DE9F04F7B
:1065F0009DB006460F4614461D46DDE9279BDDF893
:1066000098802A4800EBCB0003C8CDE91A014FF06F
:10661000000A26E0264800EBCA1000EBCB0103C9B4
:1066200014AA02EBCA0203C20AEB0A11214A02EBC6
:106630008102299952F8210003F0D5FC0EAA02EB41
:10664000CA0203C21C4901EB8A1151F82B0003F066
:10665000CAFC08AA02EBCA0203C20AF1010000F058
:10666000FF0ABAF1030FD5DB14A80EA908AA8DE81A
:106670003003CDE90421069030463946DDE91A237E
:10668000FFF776FE1DB0BDE8F08F000044174154BF
:10669000FB211940C8010020B00100207800002033
:1066A000F0000020000034401002002050A3000839
:1066B000D0A3000810A6000850A5000800B587B0B8
:1066C000A020ADF8040018208DF8070001208DF8F7
:1066D000060001A9354801F0A7FB1020ADF8040021
:1066E0008DF8070001208DF8060001A92F4801F060
:1066F0009BFB4020ADF8040028208DF80700012006
:106700008DF8060001A9294801F08EFB0220ADF8A2
:10671000040010208DF8070001208DF8060001A963
:10672000234801F081FB0121080301F039FE00201C
:10673000ADF808004FF48270ADF80A000020ADF803
:106740000C00ADF80E00ADF810004FF40070ADF87D
:1067500012001820ADF814000020ADF81600072034
:10676000ADF8180002A9134801F0A4FE0121114858
:1067700001F045FF07B000BD10B5044600BF02217F
:106780000C4801F0C0FF0028F9D02146094801F06B
:1067900067FF00BF0121074801F0B5FF0028F9D0CD
:1067A000044801F05FFFC0B210BD000000080140C6
:1067B000000C01400030014070B505460C46102128
:1067C000F84801F0E0FB2846FFF7D6FF06462046D2
:1067D000FFF7D2FF1021F34801F0D3FB304670BD24
:1067E00070B504461021EF4801F0CDFB2046FFF7BD
:1067F000C3FF0020FFF7C0FF05461021E94801F064
:10680000C0FB284670BD2DE9F04107460D461646EF
:106810001021E44801F0B7FB3846FFF7ADFF804692
:10682000002404E0285DFFF7A7FF601CC4B2B44257
:10683000F8DB1021DB4801F0A4FB4046BDE8F08105
:106840002DE9F04107460D4616461021D54801F0C6
:106850009AFB3846FFF790FF8046002405E00020B1
:10686000FFF78AFF2855601CC4B2B442F7DB102141
:10687000CC4801F086FB4046BDE8F08170B5044687
:106880000D460221C84801F07EFB0522C7492A2097
:10689000FFF7B9FF2A462146A020FFF7B4FF0221E7
:1068A000C14801F06EFB70BD70B504460D46022173
:1068B000BD4801F068FB2A462146A820FFF7A3FF48
:1068C0000221B94801F05DFB70BD1CB50522B74936
:1068D0003020FFF798FF052269461020FFF7B0FF30
:1068E000002408E01DF80400B049095D884200D08A
:1068F00003E0601CC4B2052CF4DB00BF052C01D101
:1069000001201CBD0020FCE72DE9F04107460C46A4
:1069100015462120A64908702046E11704EB517165
:10692000C910A4EBC101CCB245EA4410A04948709B
:106930002A4639469E48801C03F042F94FF0000871
:10694000022606E09A48805D404400F0FF08701C73
:10695000C6B2A81C8642F5DB6FEA0800C1B2944AB1
:10696000A81C11545221E81C1154281DC1B2104614
:10697000FFF79AFFBDE8F08170B505460E4628780E
:1069800010280ED10C2000F0C5FB84B210208949DC
:106990000870201248708C70032211468548FFF75A
:1069A000B3FF70BD2DE9F04F8DB004468B464FF01C
:1069B0000009207870BB00207F4908707F4800786C
:1069C000E8B960787E490870A07800F00F007D4932
:1069D0000870A0780121B1EB201F0DD101207A4968
:1069E00008700020794908700A207949087032201F
:1069F00078490870FFF7D6F8012070490870002028
:106A00006C490870AA204870022211466948FFF7B5
:106A10007BFF67E0207801282DD1674908704FF08F
:106A2000000906E004EB090040780DF8290009F19F
:106A30000109B9F11A0FF5DB4FF0000917E05DF815
:106A4000290003F089FA824603F0CDFA07460022B6
:106A5000614B03F012FA054603F008FB09EB8901CC
:106A600001EBC9015D4A42F8210009F10109B9F1C0
:106A70000D0FE4DB36E02078A0281AD1607840B210
:106A800000EB400056490860A07840B200EB40009F
:106A90004860E07840B200EB40008860A0204549A3
:106AA0000870AA204870022211464248FFF72CFFC6
:106AB00018E02078A32815D1494800684949486062
:106AC00047484068886046488068C86000F05FFAC0
:106AD000A32038490870AA20487002221146354880
:106AE000FFF712FF0DB0BDE8F08F70B504460D46FC
:106AF000207868B900202F49087008463A490A688A
:106B0000C0F801200979417106220021FFF7FCFE3F
:106B100070BD2DE9F0413548007821286ED1344808
:106B20000078401E3149085C522867D1002508468C
:106B3000407800F01F06084640784711022405E01F
:106B40002A48005D2844C5B2601CC4B2B01C84420F
:106B5000F6DBE843C5B226480078801E2349085C6E
:106B6000A84250D127B1022F08D0032F12D10BE039
:106B700031460F48801CFFF7B8FF11E031461B4833
:106B8000801CFFF70FFF0BE031461848801CFFF711
:106B9000F3FE05E00422002116A0FFF7B5FE00BFBA
:106BA00031E02BE000080140000C01401D000020F6
:106BB00088020020A80200201100002018000020F8
:106BC00012000020130000201400002015000020F7
:106BD0001600002017000020000059403402002059
:106BE00028020020C40200202A00002068020020A1
:106BF0001C000020476F6F64000000000322042186
:106C000065A0FFF781FEBDE8F08110B50720FFF712
:106C1000E7FD044601206149087004F04000C8B156
:106C20006020FFF7DDFD5E490870084600782128E6
:106C30000CDC08460078052808DB0846027859492C
:106C40006120FFF7FDFDFFF764FF03E0FF21E22075
:106C5000FFF7B2FD04F0100058B153480088401C03
:106C60005149088004F0010018B1FF21E120FFF72D
:106C7000A3FD70212720FFF79FFD10BD10B504462E
:106C800002214A4801F07FF9052249492A20FFF7ED
:106C9000BAFD052246493020FFF7B5FD4548444975
:106CA0000A6802600979017101212120FFF784FD42
:106CB00001212220FFF780FD03212320FFF77CFD27
:106CC00010212420FFF778FD00212520FFF774FD17
:106CD0000F212620FFF770FD70212720FFF76CFDA4
:106CE000012C08D120213120FFF766FD0F21202043
:106CF000FFF762FD41E0022C08D120213120FFF78F
:106D00005BFD0E212020FFF757FD36E0032C1AD142
:106D1000FF21E120FFF750FDFF21E220FFF74CFDAE
:106D20003F212020FFF748FD5020FFF725FD73206D
:106D3000FFF722FD01213C20FFF73EFD07213D200A
:106D4000FFF73AFD19E00E212020FFF735FDFF2166
:106D5000E120FFF731FDFF21E220FFF72DFD50205C
:106D6000FFF70AFD7320FFF707FD01213C20FFF725
:106D700023FD07213D20FFF71FFD02210B4801F0F5
:106D800000F910BD10B504460C2C04DA0A48015D68
:106D90002520FFF711FD10BD4261640010000020A6
:106DA0001C0000206802002028000020000C014088
:106DB0002A0000201D000020DCA6000808B54FF4C2
:106DC000C040ADF8000010208DF8030003208DF8BE
:106DD00002006946084801F027F80820ADF80000D5
:106DE00000208DF8030002208DF802006946034858
:106DF00001F01AF808BD0000001001400008014031
:106E00001A4800781949491D0978084417490A3178
:106E100009780844164908711448401C0078134941
:106E2000891D0978084411490B3109780844104933
:106E3000C8700E48801C00780C49C91D09780844A8
:106E40000B4988700948C01C007808490831097846
:106E50000844074948700548001D00780349093176
:106E6000097808440249087070470000E8F7FF1FDE
:106E70002A0000202DE9F04105460C46164604275D
:106E80004FF000080FE02188284600F0F6FD074685
:106E9000042F02D00120BDE8F08108F102001FFAA2
:106EA00080F8AD1CA41CB04501DA042FEBD0002003
:106EB000F1E710B50B46002104E010F8014B5C54DB
:106EC0004C1CA1B29142F8DB10BD2DE9F047ADF5A5
:106ED000806D06460F4615464FF0040A00F085FC0B
:106EE0004FEA96294FEA8929C6F309084FF48062D0
:106EF00069464846FFF7DDFF002408E008EB040080
:106F00001DF80000FF2800D003E0601C84B2AC42F2
:106F1000F4DB00BFAC4220DA484600F0ABFC82460E
:106F2000BAF1040F04D001200DF5806DBDE8F087A3
:106F3000002406E0385D08EB04010DF80100601C38
:106F400084B2AC42F6DB4FF4806269464846FFF7F4
:106F500091FF0446012C09D1E6E72A46394630461E
:106F6000FFF788FF0446012C00D1DDE700F049FC63
:106F70000020D9E770B505460E4614464FF6FF705F
:106F800000EA840231462846FFF79FFF70BD10B526
:106F9000062240494048FFF7EDFF10BD70B5054699
:106FA0000E4614464FF6FF7000EA8402314628462A
:106FB000FFF77FFF70BD00B5062236493648FFF760
:106FC000EDFF00BD10B5FFF7F6FF32480068401C2A
:106FD000C8B900202F49086048608860C8604D200B
:106FE000087465212B484174612181746E21C1743C
:106FF0006F21017543214175612181757421C1752E
:10700000FFF7C5FF09E0234840682449086021488C
:10701000806848601F48C068886010BD2DE9F04155
:1070200005460C46164604274FF000080FE0284698
:10703000216800F0EFFC0746042F02D00120BDE8D4
:10704000F08108F101001FFA80F82D1D241DB045C4
:1070500001DA042FEBD00020F1E72DE9F0410446DE
:107060000D46042700F0C1FB00260CE0204600F08E
:1070700001FC074604F58064042F02D00120BDE81E
:10708000F081701C86B2AE42F0DB00F0BAFB00204B
:10709000F5E70000C402002000F0000828020020EC
:1070A00000B585B04FF4404001F0DEF80121480200
:1070B00001F076F9002000908DF804008DF80500AD
:1070C0004FF4602002900020039001208DF8100002
:1070D0006946234800F0DBF80023012211212048F3
:1070E00000F06DF901211E4800F0FDF805B000BD6B
:1070F00010B501211A4800F036F900BF02211848E6
:1071000000F0A2FA0028F9D0154800F0BFF90446B3
:10711000204610BD70B505460026002400BF13E0D0
:1071200001210F4800F01FF900BF02210C4800F0B8
:107130008BFA0028F9D00A4800F0A8F9C0B2E100A3
:1071400088400643601CC4B2042CE9DB304602F0E0
:107150002FFD02F023FD90FBF5F105FB110070BD42
:107160000024014031490143314A1160704770B534
:10717000002100230F22C47804B32D4C246804F4AA
:10718000E064C4F5E064210AC1F10403CA40447814
:1071900004FA03F18478144021430901254C067850
:1071A000A155047804F01F050124AC4005786D1149
:1071B000AD0005F1E025C5F8004109E0047804F0D0
:1071C0001F050124AC401C4D0678761145F8264079
:1071D00070BD1A4A0A400243154B1B1F1A607047C4
:1071E00039B1134A121D12680243114B1B1D1A605C
:1071F00006E00F4A121D126882430D4B1B1D1A60D8
:107200007047042808D14FF0E021096941F00401DA
:107210004FF0E022116107E04FF0E021096921F011
:1072200004014FF0E0221161704700000000FA05F0
:107230000CED00E000E400E080E100E080FFFF1FD3
:1072400010B50446FA48844208D10121401501F0E6
:10725000C1F80021601501F0BDF817E0F54884423F
:1072600008D10121001501F0B5F80021201501F029
:10727000B1F80BE0F048844208D10121C80301F0C5
:10728000A9F800214FF4004001F0A4F810BD30B57A
:107290000246002000235068E84C20400D790C681D
:1072A00044EA0524204350609068E54C2040D1E931
:1072B00002542C434D7944EA450420439060D06A3F
:1072C00020F470000C7C641EE4B2234340EA0350B7
:1072D000D06230BD00210160017141718160C160E7
:1072E00001210174704721B1826842F0010282607D
:1072F00003E0826822F001028260704721B1826857
:1073000042F48072826003E0826822F480728260BC
:10731000704710B50023CBB21AB144681C434460D7
:1073200002E044689C43446010BD816841F008015C
:1073300081607047014600208A6802F008020AB1A5
:10734000012000E000207047816841F00401816065
:107350007047014600208A6802F004020AB1012049
:1073600000E00020704721B1826842F4A0028260F0
:1073700003E0826822F4A002826070470146002088
:107380008A6802F480020AB1012000E00020704700
:1073900010B50A4600210023416821F46041531EC4
:1073A00041EA4331416010BD21B1426842F40062BC
:1073B000426003E0426822F4006242607047F0B528
:1073C00004460D4600200021092D11DDE068A5F1DD
:1073D0000A0606EB4607072606FA07F18843A5F1D9
:1073E0000A0606EB460603FA06F10843E0600CE0E5
:1073F000206905EB4507072606FA07F1884305EBE8
:10740000450603FA06F108432061072A0FDA606B8C
:10741000561E06EB86071F2606FA07F18843561EFE
:1074200006EB860605FA06F10843606322E00D2AA2
:107430000FDA206BD61F06EB86071F2606FA07F128
:107440008843D61F06EB860605FA06F1084320633B
:1074500010E0E06AA2F10D0606EB86071F2606FA89
:1074600007F18843A2F10D0606EB860605FA06F140
:107470000843E062F0BD21B1826842F4801282606C
:1074800003E0826822F48012826070470146C86C73
:1074900080B2704766484C300068704721B142683E
:1074A00042F48062426003E0426822F480624260FB
:1074B000704721B1426842F48052426003E0426862
:1074C00022F48052426070470A460021816821F40C
:1074D000E04111438160704721B1826842F400426B
:1074E000826003E0826822F400428260704721B12A
:1074F000826842F40212826003E0826822F402127F
:1075000082607047014600208A6802F400120AB1C6
:10751000012000E000207047F0B504461546002029
:1075200000220026092911DDE068A1F10A0707EB16
:10753000470C072707FA0CF29043A1F10A0707EB63
:10754000470703FA07F21043E0600CE0206901EB03
:10755000410C072707FA0CF2904301EB410703FAAD
:1075600007F210432061A06BC0F30156EF1C06F137
:10757000010CA7EB0C0707EB870C1F2707FA0CF28F
:107580009043EF1C06F1010CA7EB0C0707EB8707F4
:1075900001FA07F21043A063F0BD10B50A460021BE
:1075A0000023816B21F44011531E41EA0351816392
:1075B00010BD08B5002300930090009B0B4400937E
:1075C000009B1A6008BD08B502460020009000929A
:1075D00001F12800009B184400900098006880B2D8
:1075E00008BD0A4600214168164B1940114341600D
:1075F00070474162826270470A460021416821F06B
:107600001F0111434160704740B1094908310968C1
:1076100041F40001064A0832116007E004490831CC
:10762000096821F40001024A083211607047000025
:107630000024014000280140003C0140FFFEF0FF13
:10764000FDF7F1FFFFFD3FFF0246002013680B40EE
:107650000BB1012000E000207047CA430260704770
:1076600070B502460020002300240B125568CEB2EC
:1076700005EA060415681D4015B10CB1012000E0B3
:10768000002070BD00220A12D3430360704700003F
:10769000002044490860091D0860091D0860091D93
:1076A000086041483F4914310860704700213D4956
:1076B0008279002A3AD00A46126803689A430B4638
:1076C0001A600A1D126803689A430B1D1A6002793A
:1076D00011440A6803681A430A60324A0832126881
:1076E00003689A432F4B08331A601A1D1268036807
:1076F0009A432C4B0C331A604279102A0ED11A1F70
:10770000126803681A43274B08331A601A1D12685F
:1077100003681A43234B0C331A600DE02149427968
:1077200011440A6803681A430A6005E002791144AB
:107730000A6803689A430A6070470021016001717A
:107740000C2141710021817170471649103109687F
:107750000143144A10321160704701460020114A5B
:10776000143212680A400AB1012000E0002070477C
:107770000C49143108607047014600200022094B73
:107780001B6803EA0102074B14331B680B4013B15B
:107790000AB1012000E0002070470249143108605E
:1077A0007047000000040140FFFF0F000146002069
:1077B000FE4A106800F03800084310607047FB492B
:1077C000096821F00801F94A11601146096801436E
:1077D00011607047F549096821F01001F34A116002
:1077E00011460968014311607047F148EF4948604C
:1077F000F04848607047EE48EC494860ED48486002
:107800007047EA48006940F08000E8490861704725
:10781000E648006940F08000E449086170470420B0
:10782000E249C96801F0010109B101200EE0DF4918
:10783000C96801F0040109B1022007E0DB49C96809
:1078400001F0100109B1032000E00420704700B5E9
:1078500002460423FFF7E3FF034603E0FFF7DFFFE1
:107860000346521E012B01D1002AF7D102B905238C
:10787000184600BD30B5044604254FF43020FFF70C
:10788000E6FF0546042D17D1C848006940F0020004
:10789000C649086108464461006940F0400008613B
:1078A0004FF43020FFF7D3FF0546C048006941F68A
:1078B000FD710840BD490861284630BD10B504245B
:1078C0004FF43020FFF7C3FF0446042C16D1B7480D
:1078D000006940F00400B54908610846006940F0BD
:1078E000400008614FF43020FFF7B1FF0446AF4875
:1078F000006941F6FB710840AC490861204610BDA3
:1079000000B502460423FFF78AFF034603E0FFF7B2
:1079100086FF0346521E012B01D1002AF7D102B97E
:107920000523184600BD10B504244FF43020FFF79E
:10793000E7FF0446042C16D19C48006940F004007F
:107940009A4908610846006940F0400008614FF418
:107950003020FFF7D5FF04469448006941F6FB71DB
:10796000084092490861204610BD00208F49C9692E
:1079700001F0020109B1012000E00020704730B59C
:10798000A5250424FFF7F1FF00B100254FF43020B6
:10799000FFF75DFF0446042C3AD18548834988608F
:1079A000844888600846006940F020000861084665
:1079B000006940F0400008614FF43020FFF747FFB6
:1079C0000446042C1BD17948006941F6DF71084058
:1079D000764908610846006940F010000861764861
:1079E0000580E002FFF733FF0446052C10D06F48F6
:1079F000006941F6EF7108406C49086108E0052C08
:107A000006D06A48006941F6EF710840674908618D
:107A1000204630BD78B506460C460425002000906F
:107A2000E802FFF714FF0546042D24D15F480069E2
:107A300040F001005D4908613480E802FFF707FF6C
:107A40000546042D10D1B01C0090200C0099088030
:107A5000E802FFF7FCFE05465448006941F6FE7156
:107A600008405249086106E05048006941F6FE713D
:107A700008404E490861284678BD70B504460D4659
:107A80000426F002FFF7E3FE0646042E11D1474814
:107A9000006940F00100454908612580F002FFF7C8
:107AA000D6FE06464148006941F6FE7108403F494E
:107AB0000861304670BD70B505460E460424E002EC
:107AC000FFF7C5FE0446042C17D1394837498860B2
:107AD000384888600846006940F0100008612E8030
:107AE000E002FFF7B4FE0446052C06D02F480069DB
:107AF00041F6EF7108402D490861204670BD2DE91F
:107B0000F04304464FF6FF763746B046B1460425AB
:107B1000E443E6B2C4F30727C4F307484FEA146905
:107B2000E802FFF794FE0546042D49D120481F497D
:107B30008860204888600846006940F010000861AD
:107B4000FF2E06D01C4808300680E802FFF77FFEB3
:107B50000546042D08D1FF2F06D017480A300780AC
:107B6000E802FFF774FE0546042D0AD1B8F1FF0FB5
:107B700007D011480C30A0F80080E802FFF767FE3C
:107B80000546042D0AD1B9F1FF0F07D00A480E307F
:107B9000A0F80090E802FFF75AFE0546052D0FD029
:107BA0000248006941F6EF71084007E000200240FA
:107BB00023016745AB89EFCD00F8FF1F66490861D7
:107BC0002846BDE8F08330B5054604244FF4302044
:107BD000FFF73DFE0446042C41D160485E498860B1
:107BE0005F4888600846006940F020000861084648
:107BF000006940F0400008614FF43020FFF727FE95
:107C00000446042C22D15448006941F6DF71084033
:107C1000514908610846006940F0100008611DB133
:107C200000205049088002E0A5204E4908804FF40A
:107C30003020FFF70CFE0446052C10D046480069A2
:107C400041F6EF7108404449086108E0052C06D070
:107C50004148006941F6DF7108403F49086120460C
:107C600030BDF0B505460E46174604243B483A4958
:107C700088603B488860E002FFF7E9FD0446042C79
:107C800019D13548006940F010003349086147F0C8
:107C9000F800304328433349891C0880E002FFF78D
:107CA000D6FD0446052C06D02B48006941F6EF713D
:107CB0000840294908612046F0BD2748C06980086E
:107CC00070472548006A704700202349096801F081
:107CD000200109B1012000E00020704729B11E4AAF
:107CE000126902431C4B1A6104E01B4A1269824369
:107CF000194B1A61704701460020012908D1164A24
:107D0000D26902F001020AB1012008E0002006E079
:107D1000114AD2680A400AB1012000E000207047F1
:107D20000D49C860704704200B49C96801F0010182
:107D300009B101200EE00849C96801F0040109B148
:107D4000022007E00449C96801F0100109B10320CD
:107D500000E0042070470000002002402301674536
:107D6000AB89EFCD00F8FF1F10B50446CC48844224
:107D700008D10121042000F02DFB0021042000F097
:107D800029FB46E0C748844208D10121082000F0C1
:107D900021FB0021082000F01DFB3AE0C24884428C
:107DA00008D10121102000F015FB0021102000F067
:107DB00011FB2EE0BD48844208D10121202000F0B3
:107DC00009FB0021202000F005FB22E0B848844296
:107DD00008D10121402000F0FDFA0021402000F0F0
:107DE000F9FA16E0B348844208D10121802000F05E
:107DF000F1FA0021802000F0EDFA0AE0AE4884425A
:107E000007D10121801500F0E5FA0021A01500F04E
:107E1000E1FA10BD10B50121084600F0DBFA00219F
:107E2000012000F0D7FA10BD2DE9F04102460025EF
:107E30000026002000230024002791F803C00CF046
:107E40000F0591F803C00CF0100CBCF1000F03D02B
:107E500091F802C04CEA050591F800C0BCF1000F92
:107E600031D0146800202BE04FF0010C0CFA00F325
:107E7000B1F800C00CEA03069E4220D183004FF007
:107E80000F0C0CFA03F7BC4305FA03FC4CEA04049C
:107E900091F803C0BCF1280F06D14FF0010C0CFA89
:107EA00000FCC2F814C00AE091F803C0BCF1480F0E
:107EB00005D14FF0010C0CFA00FCC2F810C0401CB8
:107EC0000828D1D31460B1F800C0BCF1FF0F34DD35
:107ED000546800202EE000F1080C4FF0010808FA69
:107EE0000CF3B1F800C00CEA03069E4221D18300D6
:107EF0004FF00F0C0CFA03F7BC4305FA03FC4CEAF5
:107F0000040491F803C0BCF1280F05D100F1080C5E
:107F100008FA0CF8C2F8148091F803C0BCF1480FBD
:107F200007D100F1080C4FF0010808FA0CF8C2F86C
:107F30001080401C0828CED35460BDE8F0814FF675
:107F4000FF710180022181700421C17070470246D7
:107F5000002093680B400BB1012000E00020704727
:107F60000146886880B2704702460020D3680B4003
:107F70000BB1012000E0002070470146C86880B2C4
:107F8000704701617047416170470AB1016100E0CB
:107F900041617047C16070474FF480320A4382618B
:107FA0008161826182698269704702460020434B89
:107FB00018684FF68073184040EA021008433F4BA0
:107FC000186070473E49C8617047F0B50A46002303
:107FD00000240021002500F00046B6F1004F02D138
:107FE000364EF16901E0354E7168C0F3034583B246
:107FF00000F44016B6F5401F08D121F070612F4EF5
:10800000766826F070662D4F7E6012E000F48016D0
:10801000B6F5801F06D1032606FA05F4A14341F008
:10802000706106E0460D360103FA06F6B14341F0F1
:10803000706122B1460D360103FA06F6314300F0B5
:108040000046B6F1004F02D11C4EF16101E01B4E1B
:108050007160F0BD30B500228B071C0F0F2303FAAF
:1080600004F2164B08338C1053F824309343134C0E
:1080700008348D1044F8253023468C1053F82430F2
:108080008C07240F00FA04F423430C4C08348D10A1
:1080900044F8253030BD0A49DC31086070470000E3
:1080A00000080140000C0140001001400014014094
:1080B00000180140001C0140002001400000014068
:1080C00000002042DF48006840F00100DD49086000
:1080D00008464068DC490840DA49486008460068BC
:1080E000DA490840D74908600846006820F4802033
:1080F00008600846406820F4FE0048604FF41F0006
:1081000088607047CF49096821F48031CD4A1160F9
:108110001146096821F480211160B0F5803F03D039
:10812000B0F5802F0ED106E0C649096841F48031D0
:10813000C44A116007E0C349096841F4A021C14A5B
:10814000116000E000BF00BF704710B5014600227B
:10815000002300204A11012A02D1BA4C236806E00C
:10816000022A02D1B74C236A01E0B64C636A01F0DF
:108170001F02012494401C400CB1012000E00020AB
:1081800010BD38B5002000900024002500BF31202C
:10819000FFF7DBFF05460098401C00900098B0F503
:1081A000A06F01D0002DF2D03120FFF7CEFF08B133
:1081B000012400E00024204638BD01460020A14AE9
:1081C000106820F0F80040EAC10010607047A04934
:1081D00008607047024600209A4B586820F47C10D3
:1081E00042EA01031843974B586070479849086664
:1081F000704701460020934A506820F0030008436E
:10820000506070478F48406800F00C00704701468E
:1082100000208C4A506820F0F000084350607047FE
:1082200001460020874A506820F4E060084350600F
:10823000704701460020834A506820F4605040EAAD
:10824000C1005060704729B17E4A527A02437D4B8B
:108250005A7204E07B4A527A82437A4B5A727047D0
:108260007B49D8310860704701460020754A506844
:1082700020F440400843506070470021714A20328A
:108280001170704A82F82010012802D004280AD107
:1082900004E001216B4A2032117005E00521694A92
:1082A0002032117000E000BF00BF704769490860CC
:1082B00070476449096A0143624A1162704765491F
:1082C00044390860704730B50021002200240023A3
:1082D0005C4D6D6805F00C0121B1042905D0082919
:1082E00023D105E05C4D056022E05B4D05601FE099
:1082F000544D6D6805F47012524D6D6805F480346C
:10830000022505EB92421CB9544D554305600BE024
:108310004C4D6D6805F400351DB1504D5543056059
:1083200002E04D4D5543056002E04B4D056000BF36
:1083300000BF444D6D6805F0F0010909484D6B5CC4
:108340000568DD4045603F4D6D6805F4E061090A50
:10835000434D6B5C4568DD4085603A4D6D6805F4C2
:108360006051C90A3E4D6B5C4568DD40C560354DC6
:108370006D6805F44041890B3A4D6B5CC568B5FBEF
:10838000F3F5056130BD29B12E4A526902432D4BE8
:108390005A6104E02B4A526982432A4B5A61704762
:1083A00029B1284A92690243264B9A6104E0254A82
:1083B00092698243234B9A61704729B1214AD2695D
:1083C0000243204BDA6104E01E4AD26982431D4B0E
:1083D000DA61704729B11B4AD2680243194BDA604F
:1083E00004E0184AD2688243164BDA60704729B11C
:1083F000144A12690243134B1A6104E0114A1269CC
:108400008243104B1A617047124940390860704727
:108410000F49C86470470B49C87170470948406AE2
:1084200040F0807007494862704701460020054AC5
:1084300092680A400AB1012000E00020704701491B
:1084400088727047001002400000FFF8FFFFF6FE40
:10845000000042428004424200127A0000093D00BE
:108460002F0000203F00002010B50446BE48844283
:1084700008D101218014FFF7ADFF0021A014FFF700
:10848000A9FF16E0B948844208D101210014FFF782
:10849000AEFF00212014FFF7AAFF0AE0B44884428F
:1084A00007D10121C013FFF7A2FF0021E013FFF75E
:1084B0009EFF10BD10B50022028802F441520B88C5
:1084C0004C8823438C882343CC8823430C89234343
:1084D0004C8923438C892343CC8923431A4302804C
:1084E000838B4FF2FF74234083830B8A038210BD7A
:1084F0002DE9F04F85B005460C464FF000090227E4
:108500004FF000084FF0010B0026B246A88B4FF247
:1085100040010840A88302202884B5F81C90A06878
:10852000022801D100BF38E0A08810B94FF0010B3C
:1085300001E04FF0020B8D48854200D100E000BF02
:108540006846FFF7C0FEDDF800A0E088B0F5007FC8
:108550000AD14FEA1A2000EB80004000A168B0FB6E
:10856000F1F0401D86B20BE04FEA4B10BAFBF0F081
:1085700000EB80004000A168B0FBF1F0401D86B226
:108580000A20B6FBF0F606F00108A6EB0800C0F3DF
:108590004F074FF6FF7000EA0828022F01DBFF2F7C
:1085A00002DD02274FF00008E08840EA0800384367
:1085B0002884A088A189084361880843218808434A
:1085C00040F4006040EA0909A5F81C9005B0BDE838
:1085D000F08F0021018041808180C1800181418133
:1085E0008181C18107210182704700210180418082
:1085F0008180C1800221816000218181704721B189
:10860000028842F04002028004E002884FF6BF7305
:108610001A400280704721B1828B42F480628283CB
:1086200004E0828B4FF6FF331A408283704730B5E7
:10863000002400230C110125A540ABB21AB1858896
:108640001D43858002E085889D43858030BD1AB139
:1086500083880B43838002E083888B438380704749
:10866000818170470146888970474FF6FF629142C9
:1086700004D0028842F48072028004E002884FF63F
:10868000FF631A400280704721B1828842F00402E1
:10869000828004E082884FF6FB731A408280704724
:1086A00002884FF2FF731A40028002880A43028058
:1086B0007047018841F480510180704721B10288E0
:1086C00042F40052028004E002884DF6FF731A4023
:1086D0000280704702460020012901D0108B00E083
:1086E000908A70470146088A7047B1F5804F04D1DF
:1086F000028842F48042028004E002884BF6FF7355
:108700001A40028070470246002013890B400BB1CB
:10871000012000E000207047CA4302817047F0B595
:108720000246002000240023002501F00F07012647
:10873000BE40B4B20B1101269E40B3B2968806EA41
:1087400003051689264016B10DB1012000E0002076
:10875000F0BD10B5002201F00F040123A3409AB22E
:10876000D343038110BD00000030014000380040B9
:10877000003C004010B50446FE48844208D1012167
:10878000C014FFF727FE0021E014FFF723FEC4E02A
:10879000B4F1804F08D101210846FFF728FE0021DF
:1087A0000120FFF724FEB8E0F348844208D10121FC
:1087B0000220FFF71CFE00210220FFF718FEACE0AC
:1087C000EE48844208D101210420FFF710FE002169
:1087D0000420FFF70CFEA0E0E948844208D1012103
:1087E0000820FFF704FE00210820FFF700FE94E0B8
:1087F000E448844208D101211020FFF7F8FD002150
:108800001020FFF7F4FD88E0DF48844208D1012101
:108810002020FFF7ECFD00212020FFF7E8FD7CE0A1
:10882000DA48844208D101214014FFF7D3FD00212A
:108830006014FFF7CFFD70E0D548844209D10121D3
:10884000C804FFF7C7FD00214FF40020FFF7C2FD69
:1088500063E0D048844209D101210805FFF7BAFD41
:1088600000214FF48010FFF7B5FD56E0CA4884425E
:1088700009D101214805FFF7ADFD00214FF400109B
:10888000FFF7A8FD49E0C548844208D101214020F6
:10889000FFF7ADFD00214020FFF7A9FD3DE0C048F6
:1088A000844208D101218020FFF7A1FD0021802012
:1088B000FFF79DFD31E0BB48844208D101218015BE
:1088C000FFF795FD0021A015FFF791FD25E0B648C3
:1088D000844209D101210804FFF77CFD00214FF4F7
:1088E0008030FFF777FD18E0B048844209D10121BC
:1088F0004804FFF76FFD00214FF40030FFF76AFDD9
:108900000BE0AB48844208D101218804FFF762FDE7
:1089100000214FF48020FFF75DFD10BD002202888A
:10892000944B98420ED0994B98420BD0B0F1804FA7
:1089300008D0914B984205D0904B984202D0904B72
:10894000984204D14FF68F731A404B881A438D4BCF
:10895000984207D08C4B984204D04FF6FF431A4000
:10896000CB881A4302808B8883850B880385814BD3
:1089700098420BD0854B984208D08B4B984205D03B
:108980008A4B984202D08A4B984201D10B7A0386D7
:1089900001238382704770B5002400220023058CD8
:1089A0004FF6FE7635400584028C8388048B4FF6A3
:1089B0008F752C40B51E2C400D882C43751E2A4007
:1089C0000D892A434D882A436A4DA8420BD06F4D2A
:1089D000A84208D0744DA84205D0744DA84202D0D8
:1089E000734DA84213D14FF6F7752A404D892A439B
:1089F0004FF6FB752A408D882A434FF6FF652B40C2
:108A00004FF6FF552B408D892B43CD892B43838017
:108A10000483CD888586028470BD70B50024002251
:108A20000023058C4FF6EF7635400584028C838851
:108A3000048B48F6FF752C404FF6FF452C400D88FF
:108A40004FF6FF7606EA05252C434FF6DF752A40E0
:108A50000D8906EA05152A434D8806EA05152A43BD
:108A6000444DA84202D0494DA8421DD14FF67F7512
:108A70002A404D894FF6FF7606EA05152A434FF640
:108A8000BF752A408D8806EA05152A434FF6FF3543
:108A90002B404FF2FF752B408D8906EA85052B434D
:108AA000CD8906EA85052B4383800483CD8805871D
:108AB000028470BD70B5002400220023058C4FF69F
:108AC000FF6635400584028C8388848B4FF68F7552
:108AD0002C404FF6FC752C400D882C434FF6FF556B
:108AE0002A400D894FF6FF7606EA05252A434D8870
:108AF00006EA05252A431F4DA84202D0234DA8426D
:108B00001DD14FF2FF752A404D894FF6FF7606EAD8
:108B100005252A434FF6FF352A408D8806EA0525AC
:108B20002A434EF6FF752B404DF6FF752B408D897D
:108B300006EA05152B43CD8906EA05152B438380EC
:108B40008483CD888587028470BD70B500220023A0
:108B50000024058C4EF6FF7635400584038C84880E
:108B6000828B48F6FF752A404FF6FF452A400D8854
:108B700020E00000002C01400004004000080040FC
:108B8000000C004000100040001400400034014080
:108B9000004C0140005001400054014000180040CA
:108BA000001C004000200040004001400044014003
:108BB000004801404FF6FF7606EA05252A434DF6A8
:108BC000FF752B400D8906EA05352B434D8806EAD3
:108BD00005352B43FA4DA84202D0FA4DA84208D1E0
:108BE0004BF6FF752C408D894FF6FF7606EA85150A
:108BF0002C4384808283CD88A0F84050038470BDCC
:108C0000828B4FF2FF331A408283828B4FF6FF73C1
:108C100003EA01231A4382837047F0B50C461546D8
:108C2000002200210026078C4EF6FF7C07EA0C0785
:108C30000784828B018C4FF6FF7707EA043640F6F3
:108C4000FF473A404FF6FF7707EA05273A434FF6CA
:108C5000FF7707EA03373A43D94FB8420ED0D94FCE
:108C6000B8420BD0B0F1804F08D0D74FB84205D0F2
:108C7000D64FB84202D0D64FB84206D14DF6FF7754
:108C8000394046F48057394305E047F6FF573940ED
:108C900044F48057394382830184F0BD828B4FF6C0
:108CA000F3731A408283828B0A4382837047F0B544
:108CB0000C461546002200210026078C4FF6FF6C5B
:108CC00007EA0C070784828B018C4FF6FF7707EACF
:108CD00004264FF60C773A404FF6FF7707EA031762
:108CE0002F433A43B64FB8420ED0B64FB8420BD0DE
:108CF000B0F1804F08D0B44FB84205D0B34FB8425E
:108D000002D0B34FB84206D14FF6FF57394046F470
:108D10008077394305E04FF2FF57394044F48077BC
:108D2000394382830184F0BD028B4FF2FF331A4036
:108D30000283028B4FF6FF7303EA01231A43028377
:108D40007047F0B50C461546002200210026078C1E
:108D50004FF6EF7C07EA0C070784028B018C4FF675
:108D6000FF7707EA041640F6FF473A404FF6FF77D1
:108D700007EA03373A434FF6FF7707EA05273A43F6
:108D80008F4FB8420ED08F4FB8420BD0B0F1804F0A
:108D900008D08D4FB84205D08C4FB84202D08C4FCE
:108DA000B84206D14FF6DF77394046F01007394315
:108DB00005E04FF65F77394044F0100739430283EE
:108DC0000184F0BD028B4FF6F3731A400283028BCD
:108DD0000A4302837047F0B50C4615460022002175
:108DE000068C4FF6FE773E400684028B018C4FF6D0
:108DF0000C7632407E1C06EA03162E433243704E38
:108E0000B0420ED06F4EB0420BD0B0F1804F08D0C0
:108E10006D4EB04205D06D4EB04202D06C4EB042A5
:108E200006D14FF6FD76314044F00106314305E0AE
:108E30004FF6F576314044F0010631430283018458
:108E4000F0BD70B505460C465D4885420ED05D48C4
:108E500085420BD0B5F1804F08D05B48854205D0E4
:108E60005A48854202D05A48854200D100E000BFEE
:108E7000208850B92389A28861882846FFF7ABFF74
:108E8000E1882846FFF79EFF25E0208804280AD1C4
:108E90002389A28861882846FFF753FFE188284686
:108EA000FFF742FF17E0208808280AD12389A2880B
:108EB00061882846FFF7FBFEE1882846FFF7EEFEB3
:108EC00009E02389A28861882846FFF7A6FEE18889
:108ED0002846FFF795FE70BD2DE9F04105460C468A
:108EE00000260127608808B9022600E00026A08835
:108EF000012801D1022700E001272088A0B9238999
:108F0000A28861882846FFF766FFE1882846FFF7B8
:108F100059FF23893A4631462846FFF712FFE18878
:108F20002846FFF701FF13E02389A28861882846BD
:108F3000FFF707FFE1882846FFF7F6FE23893A4648
:108F400031462846FFF747FFE1882846FFF73AFFFA
:108F5000BDE8F0810A884B881A438B881A43CB8876
:108F60001A430B891A434B891A438B891A43A0F879
:108F7000442070474FF6FF71818000210180C1803D
:108F80004180017270470021018041808180C18051
:108F9000018141818181C18170470021018041802F
:108FA000012181800021C180018170470021018061
:108FB00041808180C18001814181818170470000B1
:108FC000002C014000340140000400400008004033
:108FD000000C004021B1028842F00102028004E04E
:108FE00002884FF6FE731A400280704731B1B0F824
:108FF000442042F40042A0F8442005E0B0F84420A8
:10900000C2F30E02A0F8442070471AB183890B43C3
:10901000838102E083898B4383817047818270471B
:1090200041EA0203A0F8483070471AB183890B4324
:10903000838102E083898B438381704701894FF6E6
:10904000F8721140018170470A46002101894FF6EC
:109050008F73194011430181704730B504460D46A6
:1090600029462046FFF7F0FF208940F007002081C5
:1090700030BD2DE9F04104460D4616461F46602DD1
:1090800006D13B46012231462046FFF75AFE05E055
:109090003B46012231462046FFF79DFE29462046E9
:1090A000FFF7D2FF208940F007002081BDE8F08162
:1090B00030B50C4600210189C9B24FF6FF7505EAAB
:1090C0000325154325432943018130BD2DE9F04196
:1090D00005460E4617469846002443463A46314612
:1090E0002846FFF7E5FF2C894FF6F870044044F05E
:1090F00007044FF68F70044044F070042C81BDE8E3
:10910000F081F0B504460D4616461F463B463246F2
:1091100029462046FFF7CCFF208940F4804020817B
:10912000F0BD0185828270470A46002101884FF612
:109130008F731940114301807047F0B50C461546F6
:109140001E460021002200230189028B038C4FF66A
:10915000F877394021434FF6FC473A4040F2011777
:109160003A434FF6DD773B404FF6FF7707EA0617A5
:109170002F433B43018102830384F0BD0A46002153
:10918000018B4FF68F7319401143018370470A46D4
:109190000021018B48F6FF7319404FF6FF7303EA75
:1091A00002231943018370470A460021818B4FF641
:1091B0008F7319401143818370470A460021818BC8
:1091C00048F6FF7319404FF6FF7303EA0223194371
:1091D0008183704721B1028842F08002028004E05E
:1091E00002884FF67F731A400280704721B182884F
:1091F00042F00402828004E082884FF6FB731A403A
:109200008280704721B1828842F00802828004E0A7
:1092100082884FF6F7731A408280704721B18288A6
:1092200042F00102828004E082884FF6FE731A4009
:10923000828070470A460021018B4FF6F773194070
:109240001143018370470A460021018B4FF2FF73DF
:1092500019404FF6FF7303EA022319430183704755
:109260000A460021818B4FF6F77319401143818321
:1092700070470A460021818B4FF2FF7319404FF669
:10928000FF7303EA02231943818370470A460021D2
:10929000018B4FF6FB7319401143018370470A4657
:1092A0000021018B4FF6FF3319404FF6FF7303EA9D
:1092B00002231943018370470A460021818B4FF630
:1092C000FB7319401143818370470A460021818B4B
:1092D0004FF6FF3319404FF6FF7303EA0223194399
:1092E000818370470A460021018B4FF67F73194036
:1092F0001143018370470A460021018BC1F30E011F
:109300004FF6FF7303EA02231943018370470A46AD
:109310000021818B4FF67F73194011438183704781
:109320000A460021818BC1F30E014FF6FF7303EA59
:1093300002231943818370470A460021018C4FF6AE
:10934000FD7319401143018470470A460021018CC6
:109350004FF6F77319401143018470470A46002104
:10936000018C4FF6DF7319404FF6FF7303EA0213C7
:109370001943018470470A460021018C4FF67F7320
:1093800019404FF6FF7303EA021319430184704733
:109390000A460021018C4FF6FF5319404FF6FF7328
:1093A00003EA02231943018470470A460021018C15
:1093B0004FF2FF7319404FF6FF7303EA022319437C
:1093C000018470470A460021018C4DF6FF73194055
:1093D0004FF6FF7303EA023319430184704730B537
:1093E000002301248C40A3B2048C9C430484048C8D
:1093F00002FA01F5ADB22C43048430BD30B5002330
:1094000004248C40A3B2048C9C430484048C02FA90
:1094100001F5ADB22C43048430BD70B50346002085
:1094200000241846183001258D40ACB21D8CA54390
:109430001D8409B1082909D100EB6100056825F0F8
:10944000700505600568154305600EE00D1FC5F346
:109450004E052844056825F4E045056005684FF68B
:10946000FF7606EA02263543056070BD21B1028809
:1094700042F00202028004E002884FF6FD731A40B7
:109480000280704721B1028842F00402028004E0A9
:1094900002884FF6FB731A400280704721B1828820
:1094A00042F08002828004E082884FF67F731A4087
:1094B0008280704702884FF6F7731A400280028854
:1094C0000A430280704782884FF68F731A40828069
:1094D00082880A438280704702894FF6F8731A40E7
:1094E000028102890A430281704702894FF67F7325
:1094F0001A40028102890A430281704781847047C1
:1095000081857047818670470187704781877047E2
:10951000A0F84010704702884FF6FF431A400280BF
:1095200002880A43028070470146888E70470146D0
:10953000088F70470146888F70470146B1F8400098
:1095400070470146888C70470146088D7047024677
:109550000020138A0B400BB1012000E0002070476F
:10956000CA430282704730B502460020002300241F
:10957000158A05EA0103958905EA010413B10CB1C6
:10958000012000E0002030BDCA4302827047000085
:1095900010B50446FB48844209D101218803FEF737
:1095A00019FF00214FF48040FEF714FF32E0F64827
:1095B000844209D101214804FEF719FF00214FF42C
:1095C0000030FEF714FF25E0F048844209D1012164
:1095D0008804FEF70CFF00214FF48020FEF707FF00
:1095E00018E0EB48844209D10121C804FEF7FFFED0
:1095F00000214FF40020FEF7FAFE0BE0E54884421C
:1096000008D101210805FEF7F2FE00214FF4801079
:10961000FEF7EDFE10BD2DE9F04786B005460E467B
:109620000024A24600BFA1460027B08900B100BFB8
:109630002F462C8A4CF6FF700440F08804432C829D
:10964000AC894EF6F3100440B08831890843718923
:1096500008430443AC81AC8A4FF6FF400440B08914
:109660000443AC8201A8FEF72EFEC648874202D111
:10967000DDF810A001E0DDF80CA0A88900F400409E
:1096800040B10AEBCA0000EB0A1031684900B0FB98
:10969000F1F807E00AEBCA0000EB0A103168890014
:1096A000B0FBF1F86420B8FBF0F00401200964215C
:1096B00001FB1089A88900F4004040B1322000EB82
:1096C000C900B0FBF1F000F00700044308E03220CD
:1096D00000EB09106421B0FBF1F000F00F0004432F
:1096E0002C8106B0BDE8F0874FF4165101600021CF
:1096F0008180C18001810C214181002181817047DD
:1097000010B502460020108A4FF2FF0318400B8864
:109710004C8823438C882343CC88234318431082EE
:1097200010BD0021018041808180C180704721B13E
:10973000828942F40052828104E082894DF6FF73EF
:109740001A4082817047F0B50346002400260025A8
:10975000002040F66A17B94200D100BF1846C1F395
:10976000421401F01F06012707FA06F5012C01D16A
:109770000C3004E0022C01D1103000E014301AB19A
:1097800007682F43076002E00768AF430760F0BD3A
:109790001AB1838A0B43838202E0838A8B438382DC
:1097A0007047028A4FF6F0731A400282028A0A4317
:1097B0000282704782894FF2FF731A408281828948
:1097C0000A438281704721B1828942F0020282817C
:1097D00004E082894FF6FD731A4082817047028A45
:1097E0004FF6DF731A400282028A0A4302827047F0
:1097F00021B1028A42F48042028204E0028A4BF6DE
:10980000FF731A4002827047C1F3080282807047DA
:1098100001468888C0F308007047818941F0010142
:1098200081817047028BD2B20283028B42EA01220D
:1098300002837047028B02F47F420283028B0A4349
:109840000283704721B1828A42F02002828204E0C2
:10985000828A4FF6DF731A408282704721B1828A72
:1098600042F01002828204E0828A4FF6EF731A40BF
:109870008282704721B1828A42F00802828204E02B
:10988000828A4FF6F7731A408282704721B182892B
:1098900042F40042828103E08289C2F30E02828197
:1098A000704721B1828A42F40062828204E0828A97
:1098B0004FF2FF731A4082827047828A4FF6FB7321
:1098C0001A408282828A0A438282704721B1828A48
:1098D00042F00202828204E0828A4FF6FD731A404F
:1098E0008282704702460020B1F5007F00D100BFA0
:1098F00013880B400BB1012000E00020704701F4F9
:109900000072B2F5007F00D100BFCA4302807047E9
:1099100070B50246002400230025002040F66A1698
:10992000B14200D100BFC1F3421501F01F0301266F
:1099300006FA03F3012D02D19689334006E0022D89
:1099400002D1168A334001E0968A33400C12012678
:1099500006FA04F41688344013B10CB1012000E07B
:10996000002070BD10B50022002340F66A14A14209
:1099700000D100BF0A1201249440A3B2DC4304804A
:1099800010BD000000380140004400400048004085
:10999000004C0040005000400CB5002001900090A9
:1099A0006C48006840F480306A49086000BF69482C
:1099B000006800F4003000900198401C019000986D
:1099C00018B90198B0F5A06FF1D16248006800F4B1
:1099D000003010B10120009001E0002000900098BC
:1099E000012843D15C48006840F010005A490860E3
:1099F0000846006820F0030008600846006840F050
:109A00000200086053484068524948600846406870
:109A100048600846406840F48060486008464068F6
:109A200020F47C1048600846406840F4E810486024
:109A30000846006840F08070086000BF4548006834
:109A400000F000700028F9D04248406820F0030080
:109A5000404948600846406840F00200486000BF46
:109A60003C48406800F00C000828F9D10CBD10B546
:109A7000FFF792FF10BD10B53648006840F00100B6
:109A80003449086008464068344908403149486014
:109A900008460068324908402E49086008460068B8
:109AA00020F4802008600846406820F4FE004860EA
:109AB0004FF41F008860FFF7DAFF4FF0006029497C
:109AC000086010BD10B5002100200022214B5B680A
:109AD00003F00C0121B1042906D0082928D107E0A0
:109AE000214B224C236027E01F4B204C236023E0B6
:109AF000184B5B6803F47010164B5B6803F48032FC
:109B0000022303EB904022B9194B4343174C2360C7
:109B10000DE0104B5B6803F4003323B1144B434357
:109B2000124C236003E0104B4343104C236003E0CE
:109B30000D4B0E4C236000BF00BF064B5B68C3F3A8
:109B400003130C4CE15C094B1B68CB40074C2360B2
:109B500010BD000000100240002002400000FFF88D
:109B6000FFFFF6FE08ED00E000127A00440000203E
:109B700000093D004800002006488047064800478D
:109B8000FEE7FEE7FEE7FEE7FEE7FEE7FEE7FEE7AD
:109B9000FEE7FEE7779A0008ED5000080649074AFD
:109BA0000868504343F23902104408604008704787
:109BB0000149086070470000580000206D4EC64102
:109BC00040EA01039B0703D009E008C9121F08C03F
:109BD000042AFAD203E011F8013B00F8013B521EBF
:109BE000F9D2704780EA010210B502F0004340004C
:109BF00022D04A001FD0010E01EB1261C0F35600C3
:109C0000C2F3560240F4000042F40002A0FB02201E
:109C100000047F39140400D0401C50EA124001D4E3
:109C20004000491EC2B20C0604EBD010401C400894
:109C3000802A02D003E0002010BD20F0010000299E
:109C400000DA0020184310BD2DE9FE4F804681EA5E
:109C50000300C00F0C46009021F0004123F00045A6
:109C6000B8EB0200A94105D24046214690461C4669
:109C70000B46024623F00040104347D0270DC7F3A0
:109C80000A00C3F30A510290401A019040286BDA8F
:109C9000C3F3130040F4801B0098924620B10023C8
:109CA000D2EB030A63EB0B0B01985946C0F140025B
:109CB000504600F001FA06460D4650465946019AB4
:109CC00000F019FA10EB08006141002487EA1152F4
:109CD00084EAE7731A4340D0009A62B3019A012ADA
:109CE0004FEA075215DC001B61EB02014FF0004206
:109CF00002EA0752CDE90042001C41F580113246CC
:109D00002B4600F050FA03B0BDE8F08F40462146E4
:109D1000F9E7001B61EB0201001C41F580130018FC
:109D20005B412018A2F5001747EB030140EAD5700C
:109D3000B6196D4111E06D084FEA360645EAC07567
:109D40004FEA0752001B61EB0201001C41F5801134
:109D500049084FEA30000019514132462B4603B002
:109D6000BDE8F04F00F010BA009801224000002337
:109D7000D0EB020263EBE073009821464FEAE074F7
:109D8000B8EB000061EB0401E9E783F000435BE717
:109D900081F0004158E72DE9FE4F81EA030404F009
:109DA000004421F0004100944FF0000B23F00043E9
:109DB00050EA01045ED052EA03045BD0C3F30A54B4
:109DC000C1F30A552C44A4F2F3340194A0FB0254CD
:109DD000C1F3130141F48011C3F3130343F480135F
:109DE00001FB024400FB034E840A970A44EA8154B3
:109DF00047EA8357A4FB076802958D0A05FB078590
:109E00004FEA932C04FB0C542705029D4FEA065899
:109E100047EA1637B5EB08056EEB070C870E920E76
:109E200047EA811742EA8312A7FB0201B6EB0B0156
:109E300064EB00042B0D43EA0C335E1844EB1C501A
:109E4000DA465146E7FB0201C5F313044FEA0B3330
:109E500043EA14534FEA0432019C43EA0603A4F197
:109E60000C040294009CCDE900B400F09CF903B00E
:109E7000BDE8F08F00200146F9E72DE9F04D81EAB9
:109E8000030404F0004B21F0004514464FF0000A93
:109E900023F0004150EA050220D054EA01021DD00F
:109EA000C5F30A570246C5F31303C1F31300C1F308
:109EB0000A5640F4801543F48013A7EB0608101BE4
:109EC000D64608F2FD3873EB050002D308F101080D
:109ED00001E092185B41B8F1000F03DA002001465F
:109EE000BDE8F08D00204FF48011064684460EE058
:109EF000171B73EB050705D3121B63EB0503064322
:109F00004CEA010C49084FEA300092185B4150EAD4
:109F10000107EDD152EA030012D082EA040083EA7D
:109F20000501084305D0101BAB4106D201220023D6
:109F300006E000224FF0004302E06FF001025310F0
:109F40001AEB06004CEB085110EB0A0041EB0B0139
:109F5000BDE8F04D00F018B9C10F80EAE070084488
:109F6000CA079623002100F0E1B80EB5C10F80EAC0
:109F7000E0700844CA07002140F233438DE80E0028
:109F80000A460B4600F00FF903B000BD20F0004078
:109F9000C10DC0F3160040F400007F2901DA002053
:109FA0007047962903DCC1F19601C8407047963985
:109FB00088407047C1F30A5210B5C1F3130140F253
:109FC000FF3341F480119A4201DA002010BD40F2C3
:109FD00033439A42A2F2334203DC524200F07BF850
:109FE00010BD904010BD00F0004230F000400AD09B
:109FF000C10D01F56071C0F3160042EA0151C208BB
:10A0000040071143704700200146704730B5041ED9
:10A0100071F1000404DB4FF00044404264EB0101A5
:10A02000141E73F1000405DB1C464FF0004352423E
:10A0300063EB04038B4208BF824230BD30B5041E7F
:10A0400071F1000404DB4FF00044404264EB010175
:10A05000141E73F1000405DB1C464FF0004352420E
:10A0600063EB0403994208BF904230BD01F0004306
:10A0700030B421F0004150EA010206D00A0DA2F5E9
:10A080006072C1F31301002A02DC30BC002070476B
:10A09000440F44EAC104C100E01830BC00EBC250D8
:10A0A00000F03BB8002801DBC0F10040002901DBD3
:10A0B000C1F1004188427047202A04DB203A00FAAF
:10A0C00002F1002070479140C2F1200320FA03F30F
:10A0D000194390407047202A04DB203A21FA02F00D
:10A0E0000021704721FA02F3D040C2F120029140D2
:10A0F000084319467047202A06DBCB17203A41FA5D
:10A1000002F043EAE07306E041FA02F3D040C2F104
:10A11000200291400843194670470029A8BF7047A4
:10A12000401C490008BF20F00100704710B4B0FA8D
:10A1300080FC00FA0CF050EA010404BF10BC704728
:10A1400049B1CCF1200421FA04F411FA0CF118BF42
:10A15000012121430843A3EB0C01CB1D4FEA006111
:10A160004FEA102042BF002010BC704700EBC350E4
:10A1700010440029A4BF10BC7047401C490008BF10
:10A1800020F0010010BC704710B5141E73F10004DC
:10A1900008DA401C41F1000192185B411A4301D1D9
:10A1A00020F0010010BD2DE9F04D92469B4611B103
:10A1B000B1FA81F202E0B0FA80F220329046FFF765
:10A1C0007BFF04460F4640EA0A0041EA0B01534672
:10A1D0005A46084313D0114653EA010019D0C8F17A
:10A1E00040025046FFF777FF05460E465046594657
:10A1F0004246FFF761FF084305D0012004E02046F6
:10A200003946BDE8F08D0020054346EAE0762C4350
:10A2100037430A986305E40AA0EB08000022FD0A10
:10A2200044EA47540A3002D500200146E9E7010517
:10A2300010196941DDE9084500196941BDE8F04D93
:10A24000A2E70000064C074D06E0E06840F001037D
:10A2500094E8070098471034AC42F6D3FAF74AFF67
:10A26000ECA600080CA7000802E008C8121F08C1ED
:10A27000002AFAD170477047002001E001C1121F87
:10A28000002AFBD17047000010B5002821D0114BE7
:10A290000022001F196803E0814203D80A4649687A
:10A2A0000029F9D152B11368841A9C4204D1006884
:10A2B00018441060104602E0506000E0186039B1A8
:10A2C00002680B1A934203D10B681A440260496872
:10A2D000416010BD5C000020F0B50B30154D20F042
:10A2E00007010024144A0FE003688B420BD38B4212
:10A2F00005D95E1A43184768C3E9006700E0436860
:10A30000136002C004E0021D10680028ECD1204652
:10A31000002802D1286808B10020F0BD064A07488D
:10A320001060074A121A22F00702C0E90024012037
:10A330002860D7E7600000205C000020E4020020D5
:10A34000E0040020303132333435363738390000FC
:10A350000000000000000000000000000000F03FCE
:10A36000666666666666E23F343333333333E33F13
:10A3700054E3A59BC420E43FC976BE9F1A2FE53F56
:10A38000666666666666E63FAC1C5A643BDFE73F7E
:10A390009A9999999999E93F86EB51B81E85EB3FB7
:10A3A000666666666666EE3F21B0726891EDF03FC4
:10A3B000333333333333F33F666666666666F63FA0
:10A3C000333333333333FB3F9A9999999999014049
:10A3D000000000000000000000000000000000007D
:10A3E000000000000000000000000000000000006D
:10A3F000000000000000000000000000000000005D
:10A40000000000000000000000000000000000004C
:10A41000000000000000000000000000000000003C
:10A42000000000000000000000000000000000002C
:10A43000000000000000000000000000000000001C
:10A44000000000000000000000000000000000000C
:10A4500000000000000000004A0C022B879610400C
:10A46000BC7493180456E63FBC7493180456E63F38
:10A47000BC7493180456E63FBC7493180456E63F28
:10A48000BC7493180456E63FBC7493180456E63F18
:10A49000BC7493180456E63FBC7493180456E63F08
:10A4A000BC7493180456E63FBC7493180456E63FF8
:10A4B000BC7493180456E63FBC7493180456E63FE8
:10A4C000BC7493180456E63FBC7493180456E63FD8
:10A4D000000000000000000039B4C876BE9F0740AD
:10A4E000B4C876BE9F1A0440B4C876BE9F1A044012
:10A4F000B4C876BE9F1A0440B4C876BE9F1A044002
:10A50000B4C876BE9F1A0440B4C876BE9F1A0440F1
:10A51000B4C876BE9F1A0440B4C876BE9F1A0440E1
:10A52000B4C876BE9F1A0440B4C876BE9F1A0440D1
:10A53000B4C876BE9F1A0440B4C876BE9F1A0440C1
:10A54000B4C876BE9F1A0440B4C876BE9F1A0440B1
:10A5500000002040000088410000A0400000C840EA
:10A560000000F04000000C41000020410000344198
:10A570000000484100005C41000070410000824141
:10A5800000008C41000096410000A0410000AA415B
:10A59000000048410000E04000007041000082419E
:10A5A00000008C41000096410000A0410000AA413B
:10A5B0000000B4410000BE410000C8410000D2418B
:10A5C0000000DC410000E6410000F0410000FA41DB
:10A5D00000008C41000088410000A0410000AA4119
:10A5E0000000B4410000BE410000C8410000D2415B
:10A5F0000000DC410000E6410000F0410000FA41AB
:10A60000000002420000074200000C42000011421C
:10A61000000070C2000058C2000040C2000028C202
:10A620000000F0C1000090C10000C0C000000000A8
:10A630000000C04000004041000090410000F04197
:10A6400000002842000040420000584200007042D2
:10A6500000008CC2000082C200006CC2000054C224
:10A6600000003CC200000CC20000B8C1000030C1B4
:10A67000000000000000803F0000E040000050416A
:10A680000000C8410000144200002C420000444277
:10A6900000005C42000096C200008CC2000080C234
:10A6A000000068C2000050C2000020C20000E0C1EB
:10A6B000000080C100000000000080C000000040D9
:10A6C000000000410000A0410000004200001842CC
:10A6D00000003042000048420000A0C202204605AF
:10A6E00023440827410B293E000000000CA7000866
:10A6F000000000206400000068A2000870A70008A5
:10A70000640000207C08000078A20008000000001F
:10A710004D65616E6F000000000000000000000742
:10A720000000000000000C0100D020E0A030D0208C
:10A73000E0A0300000000000000000000000000168
:10A7400002030401020304060708090204060800C4
:10A7500000A24A04000000000000000001020304FF
:10A7600006070809000000000000000000000000CB
:04000005080050EDB2
:00000001FF
