:020000040800F2
:10000000880E002001010008870B0008D10A0008B3
:10001000850B0008C3010008B92300080000000098
:100020000000000000000000000000008D14000827
:10003000910600080000000075100008D91B000898
:100040001B0100081B0100081B0100081B01000820
:100050001B0100081B010008190700081B0100080C
:100060001B0100081B0100081B0100081B01000800
:100070001B0100081B0100081B0100081B010008F0
:100080001B0100081B0100081B0100081B010008E0
:100090001D2300081B0100081B0100081B010008AC
:1000A0001B0100081B0100081B0100081B010008C0
:1000B0001B0100081B0100081B0100081B010008B0
:1000C0001B0100081B0100081B0100081B010008A0
:1000D0001B010008B51E00081B0100081B010008D9
:1000E0001B0100081B01000835210008DFF80CD0B7
:1000F00000F02AF8004800479D260008880E0020DE
:100100000648804706480047FEE7FEE7FEE7FEE7B1
:10011000FEE7FEE7FEE7FEE7FEE7FEE7DD1B000881
:10012000ED00000840EA01039B0703D009E008C97D
:10013000121F08C0042AFAD203E011F8013B00F8AC
:10014000013B521EF9D27047064C074D06E0E068AD
:1001500040F0010394E8070098471034AC42F6D30E
:10016000FFF7C8FF6C2800088C28000870B58C18B1
:1001700010F8015B15F0070301D110F8013B2A11BB
:1001800006D110F8012B03E010F8016B01F8016BA8
:100190005B1EF9D12B0705D40023521E0DD401F8A4
:1001A000013BFAE710F8013BCB1A921C03E013F86D
:1001B000015B01F8015B521EF9D5A142D8D30020A2
:1001C00070BDFEE7C1B2000A40EA0120704700009E
:1001D0002DE9F84F0020ADF80000DFF834A14BF610
:1001E000BF7648F280074A4D4A4C40F68F7848F671
:1001F0000F7BDFF824910AF1440A31E00888474A6E
:1002000010F00F00107034D0454901EB8001D1F897
:10021000002CADF80020BDF8002012040BD5D1F859
:10022000002C02EA0802C1F8002C3E4901EB8000D4
:1002300050F8040C8047BDF80000000610D5374880
:100240003749007801EB8001D1F8002C02EA0B025B
:10025000C1F8002C344901EB800050F8040C8047B1
:10026000DAF800004946A9F800000004C6D4BDE849
:10027000F88F28682080208800F030006080208877
:1002800000F4405020802868304080F4005080F016
:100290002000384328600888C006286815D400EA82
:1002A0000B00286000F016FC26E02188890401D5A7
:1002B00080F400506188C90626D46188890601D57A
:1002C00080F0200038432860D1E7ADF80000BDF889
:1002D0000000000506D5286800EA0800286001F043
:1002E00037FA09E0BDF800000004B9D5286800EA33
:1002F0000800286000F08AFE286821883040C90480
:10030000D3D580F48050D0E780F01000D5E700000E
:10031000005C0040520100203A0000204001002013
:100320000050004060000020440000208100084888
:100330000844D0F8001C490409D5D0F8001C48F640
:100340008F7211404CF280021143C0F8001C7047BC
:1003500000500040810008480844D0F8001C4906BD
:1003600009D5D0F8001C48F68F72114048F2C0023F
:100370001143C0F8001C704700500040810006483F
:100380000144D1F8000C48F68F62104048F2800218
:100390001043C1F8000C7047005000402DE9F047B1
:1003A000DFF89480254F4FF03009D8F8001001F1A4
:1003B0001005088A0E7A08B9042E04D0AC88A04231
:1003C00015D8042614E01E480178012903D0072619
:1003D000102038802BE01B4A002112681A4B1204AF
:1003E00003EBD2325160A7F8009001701FE00226A3
:1003F000844200D90446A9682046884782460020E6
:1004000000F0CCFA01462246504601F0D7FF2146C3
:10041000002001F0D3F82888001B28806888204439
:100420006880A7F8009009494FF440500880D8F838
:1004300000000672BDE8F08744010020540100204E
:100440003C010020505C0040006000405201002050
:100450002DE9F047224EDFF88C803027356835F8DB
:10046000100FA968A9B100B3AC88844200D9044632
:100470002046884781462888001B288068882044B9
:100480006880002000F06AFA01462246484600F0E3
:10049000E1FD288848B114494FF4405008800021FC
:1004A000084601F08BF8A8F800702888A9888842CF
:1004B00001D3032001E020B1052031680872BDE8B6
:1004C000F087316806200872084900200968084A48
:1004D000090402EBD1314860A8F80070EFE7000092
:1004E000440100205401002052010020505C0040D3
:1004F00000600040F8B55D4C5D4D0926206800277E
:1005000029684278062A05D0AAB1082A4DD00A2ABD
:1005100050D06BE00278520668D18078012804D070
:10052000022804D0032804D060E0C96956E0096AB3
:1005300054E0496A52E04288B2BBC288022A55D1CF
:1005400002798ABB0278530601D1838833B102F065
:100550007F02012A04D0022A0CD047E045493DE041
:100560008A69407900219047F0B92068807A002894
:10057000F4D13BE0417901F00F0001F070020B066D
:100580003D4901EB8001D1F8001C03D5C1F30111F5
:10059000090102E0C1F301310903384B1B788342A2
:1005A00024D90AB90029D9D120E0007840061DD10C
:1005B000334913E0027802F07F02012A16D1827AD1
:1005C000A2B1428892B9027982B9C288012A0DD1BA
:1005D0008A6940790021904740B92A4931B12068A1
:1005E0004782816100208847002006E02968206852
:1005F000096940788847032813D021680A8AA2F540
:100600007F43FF3B0BD002280ED06AB1087800066A
:1006100026D5C888009082420AD9088218E00E7256
:10062000F8BD20680672F8BD4FF008000872F8BDEA
:100630000ED22868144B90F82C00824201D21F7011
:1006400006E0B2FBF0F400FB142008B9012018709A
:10065000286890F82C008882BDE8F840FFF79EBE1D
:1006600003200872094900030880F8BD44010020F6
:10067000480100205519000800500040E800002003
:10068000E91800082D1900083C0100205201002043
:100690007047000070B51448017801290FD1134C40
:1006A0000026236853B11249402B086882B207D94B
:1006B00040304025403B0860236005E0067070BD77
:1006C000184408609DB226600A48C02110442A469A
:1006D00001F074FE2946012000F070FFBDE8704073
:1006E000012000F091BF0000000000200C0000205D
:1006F00008000020C401002010B50649032001F0C5
:100700001FFEC1B2034801F02DFEBDE810400320DA
:1007100000F032BFC409002010B5012000F040F8FD
:10072000002806D0012000F035F8BDE8104000F0A8
:100730005BBB10BD7FB506208DF8080001248DF845
:10074000094000258DF80A508DF80B4002A800F0F2
:100750001DFAADF80C4048208DF80F0003208DF8ED
:100760000E0003A90A4800F077F8012000F012F803
:100770000021012000F05CF88DF804500C208DF869
:10078000050000948DF80640684600F019F87FBD1A
:10079000000C01400149086070470000140401404A
:1007A000064A014600201268044B0A4014331B68B5
:1007B0000B4202D0002A00D0012070470004014003
:1007C00030B51A498379026853B30B6893430B60C1
:1007D0000A1D13680468A343136002790A4413686E
:1007E000046823431360114A083213680468A34362
:1007F0001360131D1C680568AC431C604479102C01
:1008000005D021440A68006802430A6030BD1168BF
:10081000046821431160196800680143196030BD04
:100820000079084401689143016030BD0004014033
:1008300010B58A0721F003040649130F21440F2243
:100840008C689A4094438C608A68984002438A601E
:1008500010BD000000000140F0B5CA78002502F08C
:100860000F03D20601D58A7813430A784FF00F0E92
:1008700012F0FF0F4FF001021CD004680F8802FA3B
:1008800005F63740B74211D14FEA850C0EFA0CF746
:1008900024EA070703FA0CF43C43CF78282F02D050
:1008A000482F02D002E0466100E006616D1C082D71
:1008B000E4D304600C88FF2C1ED944685FF0000666
:1008C00006F1080702FA07F50F882F40AF420FD153
:1008D0004FEA860C0EFA0CF7BC4303FA0CF73C43C4
:1008E000CF78282F00D14561CF78482F00D10561FE
:1008F000761C082EE4D34460F0BD0000F0B5144C23
:10090000002801DAE36900E06368420D120185B254
:10091000C0F301579540C0F30346032F05D0C20230
:100920000AD50322B240934307E023F07062636864
:1009300023F07063636002E0AB4343F0706201B187
:100940002A43002801DAE261F0BD6260F0BD0000D8
:100950000000014041617047016170470549096825
:1009600089B201EBC000044901EB4000008980B26C
:1009700070470000505C0040006000400549096875
:1009800089B201EBC000044901EB40008089C0F34B
:1009900009007047505C004000600040044909684D
:1009A00089B201EBC000034931F8100080B27047F2
:1009B000505C00400060004018491848491D174A23
:1009C00000780978921D084414490A3109780144D5
:1009D0001348017111491278491C097811440F4AD2
:1009E0000B3212781144C1700C490C4A891CD21D7B
:1009F00009781278114481700849084AC91C0832E4
:100A000009781278114441700449044A091D0932D9
:100A1000097812781144017070470000E8F7FF1F51
:100A20002E0100200A4810B50168001D0468001D51
:100A3000006808180BD00822064900F079F805492B
:100A400020460422BDE81040103100F071B810BDFE
:100A5000E8F7FF1F1A00002070B51B480178012934
:100A60000AD082680021B2F5006F00D18160D0E920
:100A70000123934201D1017070BD02D9C3F5006218
:100A800001E0A2EB03021446C260402A9AB205D9E3
:100A900040254033403CC0E9023403E02344C0E930
:100AA0000231A5B2012101700848C02110442A4634
:100AB00001F084FC2946012000F080FDBDE8704073
:100AC000012000F0A1BD000000000020C4010020B2
:100AD000FEE7000010B5134C2068017A022904D00B
:100AE000042902D0062905D015E0FFF757FC20683D
:100AF000007A11E04178052909D10178490606D12B
:100B0000C07800F0CDFC08480068006A80470748BC
:100B1000006880688047082021680872BDE810409E
:100B200000F0AABA440100204C0100204801002036
:100B3000F0B500230A24302537261F4611E000BFF8
:100B4000B4EB107F02D905EB107C01E006EB107CC2
:100B500001F813C001EB430C00015B1C8CF8017021
:100B6000DBB29342ECD3F0BD0448817A044809B16A
:100B7000052100E00121016001F030B86C0A00207D
:100B800010010020FEE770477047000070B50F238A
:100B9000C47801780122F4B1144C2468457804F437
:100BA000E064C4F5E064240AC4F10406E3408478F8
:100BB000B5401C402C4301F1E021230181F80034B1
:100BC000007800F01F018A404009800000F1E02019
:100BD000C0F8002170BD01F01F008240480980006C
:100BE00000F1E020C0F8802170BD00000CED00E0B5
:100BF0000249084302490860704700000000FA05F6
:100C00000CED00E070B52F4D2868017844784A0655
:100C100006D001F07F00012828D002282BD035E033
:100C2000092C06D0052C07D0032C0ED0012C14D093
:100C30002CE000F0D9FE28E0C1787F292ED88178F9
:100C400061BB818851BB807A27E0C17801291DD121
:100C50008088D8B900F0E4FE17E0C178012915D1E9
:100C6000818899B9407A80060AD40FE00B2C0DD107
:100C700000F02CFF09E0012C02D0032C03D005E08A
:100C800000F0B4FD01E000F0DDFE58B10E49204651
:100C9000096849698847032802D018B108200DE087
:100CA00009200BE0094A062000211268084B1204B3
:100CB00003EBD2325160074A302111802968087253
:100CC00070BD00004401002048010020505C00403D
:100CD00000600040540100201CB505220C49302062
:100CE00000F05AF905226946102000F0EDF8084995
:100CF00000206A460C5C135CA34203D1401CC0B2C6
:100D00000528F7D3052801D000201CBD01201CBDFB
:100D10002401002070B5324D044602212846FFF719
:100D200019FE05222F492A2000F036F92D49052207
:100D3000491F302000F030F90121212000F04EF948
:100D40000121222000F04AF90321232000F046F976
:100D50001021242000F042F90021252000F03EF966
:100D60000F21262000F03AF97021272000F036F9F3
:100D7000012C1DD0022C21D0032C26D00E212020A6
:100D800000F02CF9FF21E12000F028F9FF21E220FA
:100D900000F024F901213C2000F020F907213D203A
:100DA00000F01CF92846BDE870400221FFF7D4BDD1
:100DB0002021312000F012F90F2104E02021312000
:100DC00000F00CF90E212020EAE7FF21E12000F0DD
:100DD00005F9FF21E22000F001F90F212020D7E7DB
:100DE000000C0140290100202DE9F041072000F00E
:100DF0008DF806462F4C40064BD5602000F086F853
:100E00002D4920700246CB6883F40053CB60212823
:100E10003BD22A49612000F057F8284920787122F6
:100E200000270A5401446268C1F80120227A4A71FD
:100E30008F71E522CA710830214DC2B22270286834
:100E40002049C0F50063934211D2024408441B4973
:100E5000A2F50062FFF766F9217828684218A2F52A
:100E60000062164917482A60FFF75CF911E0084450
:100E7000124906D9FFF756F92178286808442860F6
:100E800007E0FFF74FF92F6003E0FF21E22000F0B9
:100E9000A5F8F00608D56088401C6080F00703D0F4
:100EA000FF21E12000F09AF83146BDE8F04127200B
:100EB00000F094B82001002000100140240A002016
:100EC00004000020C40100202DE9F041DFF8388043
:100ED0000F460446154610214046FFF73BFD2046CD
:100EE00000F06AFC0646002405E0002000F064FCE7
:100EF0003855641CE4B2AC42F7D310214046FFF7EA
:100F00002BFD3046BDE8F0810008014070B5094D69
:100F1000044610212846FFF71DFD204600F04CFC3A
:100F2000002000F049FC044610212846FFF714FD7C
:100F3000204670BD0008014070B5154E0C460546B0
:100F400002213046FFF706FDFF21E12000F046F8C0
:100F50007021272000F042F805220E49302000F0D1
:100F60001BF805220B492A2000F016F822462946D4
:100F7000A02000F011F802213046FFF7EDFC0B2015
:100F800001F072FB3046BDE870400221FFF7E2BC81
:100F9000000C0140240100202DE9F041DFF83880E9
:100FA0000F460446154610214046FFF7D3FC204665
:100FB00000F002FC0646002404E0385D00F0FCFB73
:100FC000641CE4B2AC42F8D310214046FFF7C4FCE5
:100FD0003046BDE8F08100000008014070B50A4DC0
:100FE0000E46044610212846FFF7B4FC204600F0C8
:100FF000E3FB0446304600F0DFFB10212846FFF7F4
:10100000ABFC204670BD00000008014010B50F4C3D
:101010002068007A022811D004280FD0032804D0B9
:10102000052802D0072805D008E0FFF711FA20684C
:10103000007A04E006480068C068804708202168FC
:101040000872BDE8104000F017B80000440100200D
:1010500048010020064B521C520803EB410105D009
:1010600031F8043B20F8023B521EF9D170470000D2
:1010700000600040704700000C4810B590F82C103C
:10108000002000F041FA0A480068007A082802D0DF
:10109000092809D006E007494FF480500880064926
:1010A00010200880002010BD012010BD98000020F5
:1010B00044010020520100205401002010B50120FD
:1010C00001F03CF80648012101600021054A016059
:1010D000031D19604FF4E05111800160002010BD24
:1010E000405C004050010020044A0029D16901D031
:1010F000014300E08143D1617047000000100240CD
:10110000044A0029116901D0014300E081431161C3
:101110007047000000100240044A0029916901D084
:10112000014300E0814391617047000000100240DC
:10113000044A0029D16801D0014300E08143D16015
:10114000704700000010024030B51F494A6812F095
:101150000C031E4A03D0042B01D0082B21D00260BF
:101160004A680F231A4C03EA1212A35C0268DA40A1
:1011700042604B68072505EA1323E35C22FA03F378
:1011800083604B6805EAD323E35CDA40C2604968B8
:10119000032303EA9131231F595CB2FBF1F1016192
:1011A00030BD4A684B6802F470124FF0020413F429
:1011B000803F04EB924202D04B689B0301D5054B64
:1011C00000E0024B5A43CAE70010024000127A00C6
:1011D0005A01002000093D000149C1F8D8007047BC
:1011E000000042422DE9F041214C072800D0207038
:1011F00022781F4D0627052104261E48062A0BD2F9
:10120000DFE802F0030C11161E27686810B1217088
:10121000BDE8F08100F030F82770F9E700F02CF815
:101220002670012022E00220607003202070EFE78A
:101230006078401E607060780028E9D12670E7E78A
:10124000026892B242F01002026021700A206070BF
:10125000DEE76178491E617061780029D8D10168A4
:1012600089B221F010010160277000206860CFE78B
:1012700018010020405C004010B5064C206880B288
:1012800020F004002060FFF76FFC4FF43F40206027
:1012900010BD0000405C004007480068052809D1E7
:1012A00006480168491C0160062903D1002101603C
:1012B000FFF7D2BB7047000010010020340000206F
:1012C000F0B587B0A020ADF800001826284F8DF8A3
:1012D000036001248DF8024069463846FFF7BCFAE6
:1012E0001025ADF800508DF803508DF80240694686
:1012F0003846FFF7B1FA4020ADF8000028208DF8FD
:1013000003008DF8024069463846FFF7A5FA02202F
:10131000ADF800008DF803508DF80240694615487D
:10132000FFF79AFA01210803FFF7F6FE0020ADF857
:1013300004004FF48271ADF80610ADF80C00ADF862
:1013400008006102ADF81060ADF80A00ADF81200B7
:101350000720094CADF80E10ADF8140001A9204685
:1013600000F021F80121204600F008F807B0F0BD98
:1013700000080140000C01400030014000290188B4
:1013800002D041F0400101E021F0400101807047AE
:101390000246002012890A4200D00120704780894D
:1013A00070478181704730B502884C8802F4415300
:1013B0000A88CD8822438C882C4322430C892243FF
:1013C0004C8922438C892243CC8922431A430280D0
:1013D000828B22F400628283098A018230BD000080
:1013E000F8B50E46044627492648083150F824002F
:1013F00051F82410084340F001000121FFF78CFE52
:10140000204D083DBCB301210820FFF777FA55F8BD
:1014100024000121FFF768FE18208DF80300194809
:101420006946183830F81400ADF8000003208DF834
:101430000200154850F82400FFF70EFA04208DF83A
:10144000030010486946143830F81400ADF8000065
:101450000D48083050F82400FFF7FEF90A4D3146D8
:10146000083D55F8240000F0E5FD55F82400012161
:1014700000F038FDF8BDFFE701212868FFF74CFEBA
:10148000CAE70000DC270008740100207047000054
:10149000024920F00700086070470000505C0040DF
:1014A000F0B50E490E4D48F68F770B78002148F2C3
:1014B000800C0BE0CEB205EB8604D4F8002C3A4049
:1014C000324342EA0C02C4F8002C491C9942F1D381
:1014D000044940F080000860F0BD0000E8000020F2
:1014E000005000404C5C0040054A21F001011268A8
:1014F00092B202EBC000034A02EB400081607047E9
:10150000505C0040006000400D4A12683E2992B2D3
:1015100002EBC0000B4A02EB400209D94809C90698
:1015200001D1401E80B24FF4004141EA802004E026
:101530004808C90700D0401C8002106070470000B6
:10154000505C00400C60004082000A480244D2F81F
:10155000000C4BF68F731840CB0401D580F48050FB
:10156000890401D580F4005048F280010843C2F894
:10157000000C704700500040810007480144D1F83A
:10158000000C4BF68F72104080F4405048F28002FD
:101590001043C1F8000C704700500040054A21F08C
:1015A0000101126892B202EBC000034A42F8101027
:1015B00070470000505C004000600040044A126820
:1015C00092B202EBC000034A02EB40004160704758
:1015D000505C00400060004082000A480244D2F89B
:1015E000000C48F6BF731840CB0601D580F0100000
:1015F000890601D580F0200048F280010843C2F836
:10160000000C704700500040810007480144D1F8A9
:10161000000C48F6BF72104080F0300048F28002A3
:101620001043C1F8000C704700500040820005488C
:101630000244D2F8000C48F68F1318400843C2F851
:10164000000C7047005000400CB500212648019165
:101650000091026842F4803202604FF4A063026895
:1016600002F400320092019A521C0192009A12B9BF
:10167000019A9A42F3D10268920333D50121009175
:101680001A490A6842F010020A600A6822F003024E
:101690000A600A6842F002020A60416841604168DB
:1016A0004160416841F480614160416821F47C11EE
:1016B0004160416841F4E8114160016841F0807186
:1016C000016001688901FCD5416821F00301416096
:1016D000416841F0020141604168C1F38101022982
:1016E000FAD10CBD00910CBD001002400020024058
:1016F00038B501212020FFF70FFD4FF40070ADF841
:10170000000003208DF8020014208DF803006946C4
:101710000848FFF7A1F84FF480242046FFF73AF875
:10172000054908200C604871012088710846FFF7C0
:1017300047F838BD001401401000002010B500200B
:10174000FFF74AFD0121BDE81040C805FFF7CCBCFA
:1017500070B516480068174D0004C10B14480144C9
:10176000098989B200EB41042868017A09290FD060
:101770002178017061784170A088FEF723FD296807
:1017800048802089FEF71EFD29688880A089C880CE
:10179000286801210172C08828B1FEF7ABFEBDE8C0
:1017A0007040FFF769BCFFF72DFAF8E7505C004086
:1017B000006000404401002070B50B4C054602213A
:1017C0002046FFF7E5FD0028F9D029462046FFF71F
:1017D000E8FD01212046FFF7DBFD0028F9D0204677
:1017E000FFF7DDFDC0B270BD003001402DE9F041D2
:1017F00038480068017811F07F0102D0022905D035
:1018000066E0417A01F0DF0141724EE04188002933
:101810005ED10179F1BB4179304D21F080040A0697
:1018200005EB84022C4BD2F8002C03D5C2F3011235
:10183000120102E0C2F3013212031E782346A642CF
:1018400046D93AB3807A28B308064FEA84000ED509
:101850002844D0F8000CC0F30110012821D118460B
:10186000FEF778FD20463021FFF7B6FE19E0461955
:10187000D6F8000CC0F30130012812D14BF68F7757
:1018800048F28008A4B11846FEF750FDD6F8000CC7
:10189000384000E01CE080F4405040EA0800C6F800
:1018A000000C0F480068406980470020BDE8F081C7
:1018B0000C4890F82C100020FFF726FED5F8000CFD
:1018C000384080F4405040EA0800C5F8000CE8E7D2
:1018D0000220EBE744010020E80000200050004017
:1018E0004C0100209800002010B5074C30B107488B
:1018F00000680068804720680A3010BD2168012018
:101900000882002010BD0000440100204C0100208E
:10191000054A13685A8A10B10868104470478888CD
:10192000801A1882002070474401002010B5074C2F
:1019300030B1074800688068804720680C3010BDCF
:10194000216801200882002010BD00004401002011
:101950004C010020204910B5096860B11F480022E1
:1019600002800A7853060AD002F07F02012A16D0BC
:10197000022A16D001E002200882002010BD497A18
:101980008A06027802D542F0020201E002F0FD026E
:1019900049060270D1B211D401F0FE0110E00F48E7
:1019A00010BD4A79110713060D4A02EB9161D1F877
:1019B000001C07D5C1F3011106E0017841F00101D7
:1019C000017003E0C1F301310129F6D00548006838
:1019D00000698047E3E70000440100203E01002049
:1019E000005000404C0100200A4810B500680A4A27
:1019F000C1785278914203D882780AB982880AB1B4
:101A0000022010BD817205480068406880470020B0
:101A100010BD000044010020E80000204C0100201F
:101A2000064810B50068417A41F02001417204482F
:101A30000068C0698047002010BD000044010020FC
:101A40004C01002070B51D481D4D0368597921F0E7
:101A5000800005EB80000C06D0F8004C21F08002DD
:101A600003D5C4F30114240102E0C4F301342403B8
:101A7000144D2D78954210D95A8872B96CB19A7A62
:101A80005AB10906D0F8001C48F2800207D548F682
:101A9000BF73194081F0100106E0022070BD4BF6C3
:101AA0008F73194081F480511143C0F8001C06481F
:101AB000006880698047002070BD0000440100205C
:101AC00000500040E80000204C01002010B50E4CF2
:101AD0000E4A20681268C17892694079904721685F
:101AE0008A7A22B118B9087908B9887808B1022031
:101AF00010BD07480068C068804720684179C172FE
:101B0000C1780173002010BD44010020480100206D
:101B10004C010020F8B52B49002000900A682A4BA0
:101B20002A4C92B203EB8005D5F8005CADB244F8C4
:101B30002050401C0828F5D342F48060086040F033
:101B40000100086020F001050D601E4A121D10689A
:101B50004005FCD54FF6FF301060002054F820609F
:101B600003EB8007B6B2C7F8006C401C0828F5D319
:101B700045F008000860086880B240F00400086082
:101B8000134B18680090186820F0030040F0010023
:101B900018601048046844F0040404601468E40405
:101BA00001D430BF09E04EF6FF7414600A6892B2A7
:101BB00022F008020A6000991960016821F004010E
:101BC0000160F8BD405C004000500040040A002065
:101BD0000070004010ED00E0704700000F4810B5A5
:101BE000016841F00101016041680D4A1140416006
:101BF00001680C4A11400160016821F480210160F4
:101C0000416821F4FE0141604FF41F018160FFF73C
:101C10001BFD05494FF00060086010BD0010024038
:101C20000000FFF8FFFFF6FE08ED00E0C943018267
:101C300070470029018802D041F0010101E021F044
:101C400001010180704700004B4910B5884202D164
:101C50000121C41486E0B0F1804F09D04749884281
:101C60000DD101210220FFF74BFA0021022064E090
:101C700001210846FFF744FA002101205DE04049B8
:101C8000884206D101210420FFF73AFA00210420FE
:101C900053E03C49884206D101210820FFF730FA81
:101CA0000021082049E03849884206D1012110204E
:101CB000FFF726FA002110203FE03449884206D180
:101CC00001212020FFF71CFA0021202035E03049B7
:101CD000884202D10121441444E02E49884202D1B5
:101CE0000121CC043EE02C49884202D101210C059F
:101CF00038E02A49884202D101214C0532E02849C6
:101D0000884206D101214020FFF7FAF90021402046
:101D100013E02449884206D101218020FFF7F0F921
:101D20000021802009E0204988420AD18415012140
:101D30002046FFF7E5F900212046BDE81040FFF7F7
:101D4000DFB91A49884202D101210C040AE018497E
:101D5000884202D101214C0404E0164988420AD18C
:101D600001218C042046FFF7E3F92046BDE810402E
:101D70000021FFF7DDB910BD002C01400004004038
:101D800000080040000C004000100040001400401B
:101D900000340140004C014000500140005401401B
:101DA00000180040001C004000200040004001409E
:101DB0000044014000480140002A828901D00A43C2
:101DC00000E08A438281704730B502881B4B1C4C6F
:101DD00098420DD0A0420BD0B0F1804F08D0194DE1
:101DE000A84205D0184DA84202D0184DA84203D1F0
:101DF00022F070054A882A43154DA84206D0154D99
:101E0000A84203D022F44075CA882A4302808A88F7
:101E100082850A88028598420AD0A04208D00E4ADC
:101E2000904205D00D4A904202D00D4A904201D115
:101E3000097A01860121818230BD0000002C014019
:101E4000003401400004004000080040000C004045
:101E500000100040001400400040014000440140D8
:101E6000004801403EB5044601210220FFF73CF93D
:101E70000F4D2846FFF7E8FE4720ADF80000002090
:101E8000ADF80440ADF80600ADF8020069462846FA
:101E9000FFF79AFF01212846FFF7C8FE01221146ED
:101EA0002846FFF789FF01212846FFF7C2FE3EBD05
:101EB0000004004010B50A4C40F22551204600F0C5
:101EC00082F808B100F010F90821204600F074F8FB
:101ED000002804D02046BDE8104000F001B910BD34
:101EE000003801400029818902D041F4005101E00D
:101EF00021F40051818170471E4A10B513791E48A4
:101F0000002123B1012B04D0022B1CD104E0C1809D
:101F100005E04FF4405301E04FF40053C380537980
:101F200023B1012B04D0022B0DD104E0018105E087
:101F30004FF4806301E04FF4C06303819379072B72
:101F40000BD0082B03D000F019F8002010BD038936
:101F50001BB14FF48053838000E0818012680260DF
:101F600081810C21418104490020FFF739FA0120C9
:101F700010BD000080000020B40100200C4810B506
:101F80004FF41651016000218180C1804FF4C0627E
:101F9000028181810C21418101460020FFF720FA56
:101FA000BDE81040012240F22551024800F02AB855
:101FB000B4010020003801400246002012880A4285
:101FC00000D00120704730B501F01F020124002528
:101FD000C1F3421304FA02F2012B0FD0022B0FD0EF
:101FE000838A4FEA11210088134204FA01F400EABF
:101FF000040001D000B10125284630BD8389F0E7F7
:10200000038AEEE710B5C1F3421301F01F0401216A
:10201000A140012B07D0022B07D01430002A026800
:1020200005D00A4304E00C30F8E71030F6E78A43A5
:10203000026010BD30B50446008A85B00D464CF6EE
:10204000FF710840E98801432182A1894EF6F3100F
:102050000140A8882A8910436A890A431043A08155
:10206000A08A4FF6FF410840A9890143A182684632
:10207000FFF76AF81948844201D1039800E00298FA
:10208000A189090400EBC00101EB0010296801D50A
:10209000490000E08900B0FBF1F06422B0FBF2F1EE
:1020A00009010B096FF018056B4300EB8300A3894E
:1020B0001D044FF0320306D503EBC000B0FBF2F075
:1020C00000F0070005E003EB0010B0FBF2F000F0B9
:1020D0000F000843208105B030BD000000380140EA
:1020E0008088C0F30800704770B50E480F4D104C43
:1020F00081790D48072902D0082905D008E0FFF7AB
:10210000EFFF00F07F0001E0FFF7EAFF616868542D
:102110006068401C6060B0F5006F01D10020606015
:1021200070BD00008000002000380140C401002084
:10213000000000204FF48020FEF72CBB044A00284A
:102140004FF40071104601D0FEF704BCFEF704BC4A
:102150000014014006480549022201600A72064A3D
:102160000449C0E901120868004700006C0A002019
:102170004401002098000020EC00002038B54FF406
:10218000A060FEF735FD14208DF8000002208DF8C8
:10219000010000258DF8025001248DF803406846A7
:1021A000FEF7F4FC2A208DF800008DF801506846F7
:1021B000FEF7ECFC25208DF800008DF801408DF82D
:1021C00002406846FEF7E2FC38BD00002DE9F04110
:1021D0004C4E88B0002430684B4D688068884B4F67
:1021E00039880840800507D54FF6FF5030602878C1
:1021F000401C2870FFF750F86888398808400004B0
:1022000001D5FDF7E5FF688839884FF6FF380840AB
:10221000400504D5C6F800803D484068804769887D
:1022200038880140890402D54DF6FF713160698814
:102230000140C80405D54EF6FF7030600020FEF75F
:10224000D1FF68883988084000050BD531480078EF
:1022500010B1FFF75FFC02E00220FEF7C3FF4FF270
:10226000FF703060688839880840C00546D54FF651
:10227000FF6030602348001D00684FF0000200043A
:1022800038D56868401C68606868032833D91D48E1
:10229000001F016809072ED4016889B2A9601E4990
:1022A0004FEA0D0301EB8407D7F8007CBFB243F877
:1022B0002470641C082CF5D3AC6844F00104AC60B5
:1022C000AC68A4B20460AC6824F00104AC60AC68F3
:1022D000A4B2046030684005FCD5C6F80080002038
:1022E00053F8204001EB8006A4B2C6F8004C401C15
:1022F0000828F5D36A600720FEF774FF08B0BDE830
:10230000F0810000445C00403800002050010020B3
:10231000980000201401002000500040FFF756BF35
:1023200005490020086005494FF43F4008800249F4
:10233000091F086000207047445C004050010020E5
:1023400070B500F07F060D463046FEF717FB0446D9
:102350003046FEF703FB014622462846FEF77AFE8A
:10236000204670BD10B50C46282920D8021912F855
:10237000011CE5290CD0522919D1014622460C48EE
:10238000FDF7D0FE2146BDE810400948FEF7D4BD58
:10239000084952F8073D0B6012790A71A4F108024E
:1023A000014614460248FDF7BDFEE1B2EBE710BD61
:1023B0004C0A002024010020FEE70000094B10B564
:1023C000521C520803EB41010AD000BF10F8013B38
:1023D000521E10F8014B43EA042321F8043BF5D1C7
:1023E00010BD000000600040104A10B500211268C6
:1023F000212802D0202807D016E0107800F07F00B6
:10240000212811D10A4908E0107800F07F00212826
:1024100000D10849084B2020187029B10020916193
:1024200050828847002010BD022010BD44010020CA
:1024300055240008C92500087C0000200149FFF749
:1024400067BA0000900000200149FFF761BA000060
:102450008800002008B10448704704490820096832
:102460000882002070470000800000204401002006
:1024700005490968C978042901D900207047034A31
:1024800002EBC101FFF744BA44010020C80000205C
:1024900009B9012801D902207047002070470000C7
:1024A00007490968097801F07F01212903D1022831
:1024B00003D0222801D0022070470020704700007E
:1024C00044010020334810B50068334A002181726E
:1024D000D2794272C1720846FEF7DAFF4FF40071FA
:1024E0000020FFF7A3F810210020FFF775F8402126
:1024F0000020FEF7F9FF80210020FFF74FF80020B1
:10250000FDF73CFF254890F82C100020FEF7FCFF5B
:102510000020FFF731F800210120FFF787F8C021E4
:102520000120FFF73BF820210120FFF755F800219B
:102530000120FFF709F84FF4C0610220FFF776F899
:102540004FF480710220FFF729F800210220FEF7E6
:10255000FBFF20210220FFF73FF800210320FFF7B7
:1025600065F84FF488710320FEF7BEFF4021032079
:10257000FEF7CAFF4FF440510320FEF7E5FF0021AC
:102580000320FFF729F80020FEF78AFF0449012005
:10259000086010BD44010020222700089800002098
:1025A000100100200348807A002802D0024905204B
:1025B000086070476C0A00201001002001490420C7
:1025C000086070471001002008B1044870470449B2
:1025D0000820096808820020704700008000002061
:1025E0004401002010B5044C2078202803D1FFF7C7
:1025F00083FC0020207010BD7C000020704700008C
:1026000010B5FEF70FFA0648002400688472FEF742
:1026100055FDFFF785FEFFF7B1FC0248046010BDD1
:10262000440100201001002002E008C8121F08C168
:10263000002AFAD170477047002001E001C1121F43
:10264000002AFBD1704700004FF0E0226FF0070135
:1026500011610449C0084FF47A7248605043086021
:1026600070470000340100200B49496848434FF08F
:10267000E021486100228A61086940F00100086198
:102680000869C30701D0C003FAD5086920F0070024
:1026900008618A61704700003401002008B50121FB
:1026A0005920FEF739FD4820FFF7CEFFFFF720F84D
:1026B000FFF744F8FFF762FDFFF74CFDFEF77CF9EA
:1026C000FEF7FEFD0420FEF725FBFA20FFF7CAFB0C
:1026D0004FF40054ADF8004010208DF803000220A4
:1026E0000A4D8DF8020069462846FEF7B5F8FEF758
:1026F000F3FA00282146284602D0FEF72BF901E024
:10270000FEF72AF9FEF716F8FEE700000010014078
:10271000120100020200004083044057000201023F
:10272000030109024300020100C032090400000154
:102730000202010005240010010524010001042407
:1027400002020524060001070582030800FF0904B0
:102750000100020A0000000705030240000007050F
:102760008102400000040309042603530054004D75
:10277000006900630072006F0065006C0065006313
:1027800000740072006F006E006900630073003215
:1027900003530054004D00330032002000560069FE
:1027A0000072007400750061006C00200043004F4F
:1027B000004D00200050006F0072007400200020C7
:1027C00000000000000220000004400040008000E3
:1027D00000010002004000000000020004000000B0
:1027E0002000000004000000200000001000000095
:1027F0001000000010000000100000000100002088
:10280000000201000200000100400010040000006E
:102810001000000008000000400000004000000020
:102820002000000020000000200000000100002027
:102830000002010002000001004000100000020040
:1028400001000400040003000300030000000D0069
:1028500009000000010008000E000C00060028001E
:102860001700060007001700280028008C28000821
:1028700000000020B40100006C0100083C290008A1
:10288000B4010020D40C0000382600080118141AE6
:1028900003531254124D12330221321395060C1CAD
:1028A00008890B040A11F9245133C20112081310CC
:1028B000273308121A220832431301261408C524AC
:1028C0001408E5251B08FD0413E9231B08A1101AB1
:1028D00091041A49041A3D041A71044132401A65E0
:1028E0003832041A690832261A8F0829BA22183396
:1028F000201A1A046729741AA54C0916A41ABD1CBB
:10290000412992C13EE1E2E3E4E50501284C0204DD
:10291000064A2C020304043506070809143801404E
:102920001A44AF1A08081A14046908DA100429189E
:0C29300029081A0C045A1804292859041C
:04000005080000ED02
:00000001FF
