:020000040800F2
:1000000028070020B5380008BD380008BF380008B0
:10001000C1380008C3380008C538000800000000D7
:10002000000000000000000000000000C7380008C9
:10003000C938000800000000CB380008CD3800089F
:10004000CF380008CF380008CF380008CF38000874
:10005000CF380008CF38000807090008CF3800085B
:10006000CF380008CF380008CF380008CF38000854
:10007000CF380008CF380008CF380008CF38000844
:10008000CF380008CF380008CF380008CF38000834
:10009000CF380008CF380008CF380008CF38000824
:1000A000CF380008CF380008CF380008CF38000814
:1000B0006B09000881090008CF380008CF38000814
:1000C000CF380008CF380008CF380008CF380008F4
:1000D000CF380008F50F0008CF380008CF380008E7
:1000E000CF380008CF380008CF38000800F002F8F9
:1000F00000F03EF80AA090E8000C82448344AAF184
:100100000107DA4501D100F033F8AFF2090EBAE881
:100110000F0013F0010F18BFFB1A43F0010318473B
:10012000283E0000483E0000103A24BF78C878C13D
:10013000FAD8520724BF30C830C144BF04680C60ED
:10014000704700000023002400250026103A28BF35
:1001500078C1FBD8520728BF30C148BF0B60704739
:100160001FB59DE8030003F07FFC1FBD10B510BD57
:1001700003F008FD1146FFF7F3FF00F019F803F054
:1001800026FD03B4FFF7F2FF03BC03F053FD0000AC
:10019000EFF30980704780F309887047EFF3088018
:1001A000704780F30888704740BA7047C0BA7047FC
:1001B00010B501F063F800F0ADFC00F0EBFC4FF47B
:1001C000FA7000F05AFD00F05FFF00F083FD00F0D0
:1001D0005BFB00F021FC032000F0A7FA00BF0448FD
:1001E00000780028FBD100F062FF002010BD000065
:1001F0000000002070B505460C461021F84801F0BB
:1002000060FD284600F066FC0646204600F062FCD1
:100210001021F34801F053FD304670BD70B504461F
:100220001021EF4801F04DFD204600F053FC002066
:1002300000F050FC05461021E94801F040FD284639
:1002400070BD2DE9F04107460D4616461021E448E1
:1002500001F037FD384600F03DFC8046002404E004
:10026000285D00F037FC601CC4B2B442F8DB1021FA
:10027000DB4801F024FD4046BDE8F0812DE9F04166
:1002800007460D4616461021D54801F01AFD38469E
:1002900000F020FC8046002405E0002000F01AFC5D
:1002A0002855601CC4B2B442F7DB1021CC4801F0E1
:1002B00006FD4046BDE8F08170B504460D460221BA
:1002C000C84801F0FEFC0522C7492A20FFF7B9FF04
:1002D0002A462146A020FFF7B4FF0221C14801F0C1
:1002E000EEFC70BD70B504460D462A462146A82096
:1002F000FFF7A7FF70BD1CB50522BB493020FFF7F3
:10030000A0FF052269461020FFF7B8FF002408E08F
:100310001DF80400B449095D884200D003E0601C68
:10032000C4B2052CF4DB00BF052C01D101201CBD9B
:100330000020FCE72DE9F04107460C461546212038
:10034000AA4908702046E11704EB5171C910A4EBCB
:10035000C101CCB245EA4410A44948702A46394646
:10036000A248801C03F01CFB4FF00008022606E0A8
:100370009E48805D404400F0FF08701CC6B2A81C77
:100380008642F5DB6FEA0800C1B2984AA81C1154F6
:100390005221E81C1154281DC1B21046FFF7A2FFDC
:1003A000BDE8F08170B504460D46914800880128EB
:1003B0001FD12078F0281BD100208E490880A0781A
:1003C000617840EA01208C49088020218B4800F0A8
:1003D0001EFF022086490880F02089490870AA2063
:1003E0004870022211468648FFF7A4FF01F09BF8EF
:1003F0009BE07F4800880228FAD12078F0280DD1B0
:1004000000207C490880F0207D490870AA204870AF
:100410008870032202217A48FFF78CFF2078F128A8
:1004200045D1002073490880A078617840EA012016
:1004300074490880084600887349098888421ED19B
:10044000714909886D4A88181822E11C00F040FEA5
:100450006D48008818306C490880F12068490870A0
:10046000AA204870684800880012887066480078A2
:10047000C870042202216248FFF75CFF17E062485F
:10048000008860490988401A182810DBF1205C496F
:100490000870AA2048705C480088001288705A488A
:1004A0000078C870042202215548FFF743FF2078E6
:1004B000F9283AD1A078617840EA012051490880B2
:1004C00000204C490880504800884E4909888842DD
:1004D00010D1E91E8AB24C490988484BC818E11C62
:1004E00000F0F6FD01F02BF8E81E474909880844A2
:1004F00045490880444800883F49098888420AD114
:10050000F9203F490870AA204870022211463C4851
:10051000FFF710FF09E0F9203949087055204870AD
:10052000022211463648FFF705FF70BD70B505463B
:100530000E462F48008878BB2878D0283BD101246C
:1005400009E0285D3149214411F8011C884200D09E
:1005500003E0601CC4B2092CF3DB00BF092C10D1EE
:10056000012023490880D02025490870AA2048701E
:10057000022201212248FFF7DDFE00201D490880EC
:1005800019E0D0201E490870552048700222012130
:100590001B48FFF7CFFE0EE0FFE715480088012853
:1005A00009D1D02016490870AA20487002220121E2
:1005B0001348FFF7BFFE70BD70B504460D462078A6
:1005C00068B900200E490870084611490A68C0F849
:1005D00001200979417106220021FFF7ABFE70BDB1
:1005E00000080140000C01400500002074000020BC
:1005F00010000020020000201A0000200050000817
:10060000940000201E0000201C000020120000208A
:10061000260000202DE9F0418248007821283AD1B7
:1006200081480078401E7F49085C522833D100255C
:100630000846407800F01F0608464078471102241B
:1006400005E07848005D2844C5B2601CC4B2B01C07
:100650008442F6DBE843C5B273480078801E7149D6
:10066000085CA84217D127B1012F07D0022F11D162
:100670000AE031466D48FFF79FFF0BE031466948BD
:10068000801CFFF753FF05E031466648801CFFF7EA
:1006900089FE00BF00BFBDE8F08110B50720FFF75D
:1006A000BDFD04460221624801F00BFB04F040004E
:1006B000A8B16020FFF7B2FD5B49087008460078DA
:1006C000212808DA0846027856496120FFF7D6FD4E
:1006D000FFF7A0FF03E0FF21E220FFF78BFD04F00E
:1006E000200028B15348C06880F400505149C860C8
:1006F00004F0100018B1FF21E120FFF77BFD70210D
:100700002720FFF777FD0221494801F0D8FA10BDF4
:1007100010B50446052221462A20FFF792FD052246
:1007200021463020FFF78DFD10BD10B50446022193
:100730003F4801F0C6FA05223F492A20FFF781FD14
:1007400005223E493020FFF77CFD01212120FFF7E3
:1007500051FD01212220FFF74DFD03212320FFF74A
:1007600049FD10212420FFF745FD00212520FFF73A
:1007700041FD0F212620FFF73DFD70212720FFF7C7
:1007800039FD012C08D120213120FFF733FD0F2145
:100790002020FFF72FFD35E0022C08D12021312049
:1007A000FFF728FD0E212020FFF724FD2AE0032C6F
:1007B00014D1FF21E120FFF71DFDFF21E220FFF70B
:1007C00019FD3F212020FFF715FD01213C20FFF7F7
:1007D00011FD07213D20FFF70DFD13E00E21202024
:1007E000FFF708FDFF21E120FFF704FDFF21E220D4
:1007F000FFF700FD01213C20FFF7FCFC07213D2015
:10080000FFF7F8FC05220C492A20FFF71AFD052204
:100810000A493020FFF715FD0221054801F04FFA83
:1008200010BD0000540000200400002076000020CD
:10083000000C0140001001400A00002005000020CB
:100840000EB5012000F047FE0021012001F0A0FAC2
:100850000120ADF8080048208DF80B0003208DF82A
:100860000A0002A9624801F07DF9012000900020F1
:100870008DF804000C208DF8050001208DF806008D
:10088000684600F0B1FD0EBD08B54FF4A06000F061
:100890002FFD1C208DF8000002208DF801008DF83E
:1008A000020001208DF80300684600F026FD1D209F
:1008B0008DF8000003208DF801008DF80200012062
:1008C0008DF80300684600F018FD25208DF8000023
:1008D00001208DF801008DF802008DF803006846B4
:1008E00000F00BFD06208DF8000000208DF80100BF
:1008F0008DF8020001208DF80300684600F0FDFC31
:10090000FFF79EFF08BD10B5012000F0D3FD20B118
:10091000FFF7C3FE012000F0DEFD10BD3548007872
:1009200010B33548007880B93448008864304FF0FF
:100930008041A1F840003148008841F230118842DE
:1009400012DB01202C4908700EE02C480088643826
:100950004FF08041A1F8400028480088B0F5C86FEA
:1009600002DC002024490870704710B50121880777
:1009700002F097FC18B10121880702F0A3FC10BD1A
:1009800010B501211E4802F08CFC18B301211C484F
:1009900002F098FC1B480088401C1A490880084651
:1009A00000884FF4487190FBF1F201FB120028B966
:1009B0001548C06880F400501349C8601148008889
:1009C00040F6B831884206D11048FFF7A1FE012059
:1009D0000F4908700AE00B48008841F270718842A4
:1009E00004D100200B4908700649088010BD0000A2
:1009F000000C0140250000202400002040000040A1
:100A000000040040020000200010014026000020E9
:100A10000F0000200000002000B587B0A020ADF836
:100A2000040018208DF8070001208DF8060001A9A8
:100A3000354801F097F81020ADF804008DF8070054
:100A400001208DF8060001A92F4801F08BF8402005
:100A5000ADF8040028208DF8070001208DF806006D
:100A600001A9294801F07EF80220ADF80400102009
:100A70008DF8070001208DF8060001A9234801F038
:100A800071F80121080301F029FB0020ADF80800EE
:100A90004FF48270ADF80A000020ADF80C00ADF8FC
:100AA0000E00ADF810004FF40070ADF812001820E1
:100AB000ADF814000020ADF816000720ADF81800BE
:100AC00002A9134801F094FB0121114801F035FC03
:100AD00007B000BD10B5044600BF02210C4801F06C
:100AE000B0FC0028F9D02146094801F057FC00BFAE
:100AF0000121074801F0A5FC0028F9D0044801F0C5
:100B00004FFCC0B210BD000000080140000C0140C5
:100B10000030014000B587B0012140F65D0001F0D2
:100B2000DDFA40F2E730ADF814001720ADF8100000
:100B30000020ADF81600ADF812008DF8180004A9D9
:100B4000604801F089FD01215E4802F0E1F90821C9
:100B50005C4802F00DFA4FF40060ADF80000401060
:100B6000ADF802000020ADF80400ADF80600ADF8C5
:100B700008004FF40050ADF80A004000ADF80C003A
:100B80006946504802F084F801214E4802F0C0F84E
:100B900007B000BD00B589B00F20ADF804001820E3
:100BA0008DF8070001208DF8060001A9464800F0E5
:100BB000D9FF0121084601F09EFA49F64040ADF800
:100BC0001C002320ADF818000020ADF81E00ADF881
:100BD0001A0006A94FF0804001F03EFD6020ADF8FC
:100BE00008000120ADF80A0040F6B830ADF80E005C
:100BF0000020ADF8100002A94FF0804001F069FD1F
:100C00000821C80602F0B4F902A94FF0804001F0B3
:100C1000A2FD0821C80602F0B4F902A94FF08040F5
:100C200001F0E6FD0821C80602F0B8F902A94FF06C
:100C3000804001F028FE0821C80602F0B8F9012121
:100C4000880702F065F90121880702F027FB0122DD
:100C50001146900702F077F80121880702F058F852
:100C600040F6B8304FF080418886088788874FF477
:100C7000C8601649088009B000BD3EB50446012190
:100C8000022001F038FA124801F012FCADF80440DD
:100C90004720ADF800000020ADF80600ADF80200D6
:100CA00069460B4801F0D8FC0121094802F0F6FA28
:100CB00001221146064802F046F80121044802F0DC
:100CC00027F83EBD002C01400008014040000040D4
:100CD0000004004000B585B00121880301F0FEF951
:100CE0000120E34908724FF4E13001900020ADF893
:100CF0000800ADF80A00ADF80C00ADF810000C20AB
:100D0000ADF80E0001A9DB4802F023FB00BF402133
:100D1000D84802F085FC0028F9D0012240F2266173
:100D2000D44802F0AEFB0121D24802F09EFB4FF402
:100D30000070ADF8000018208DF8030002208DF837
:100D400002006946CC4800F00DFF4FF48060ADF81A
:100D5000000002208DF8020004208DF8030069468F
:100D6000C54800F0FFFE05B000BD70B504460D4655
:100D7000BF48007A012828D1BD488580014688886F
:100D800002F0B8FDBA4908600020C8800CE0B848FD
:100D9000C088205CB6490968B54AD2888854B448EE
:100DA000C088401CB249C880B148C088B049898811
:100DB0008842ECDBAE4800680178AE4802F0C2FB26
:100DC0000120AB49C8800020087270BD1CB50446E4
:100DD000002C04DBA94800788DF8000004E02D20E9
:100DE0008DF80000604204B242F2107094FBF0F003
:100DF000A249085C8DF8010042F2107094FBF0F1FA
:100E000000FB11404FF47A7190FBF1F09B49085CB4
:100E10008DF802004FF47A7094FBF0F100FB114062
:100E2000642190FBF1F09549085C8DF80300642083
:100E300094FBF0F100FB11400A2190FBF1F08F4987
:100E4000085C8DF804000A2094FBF0F100FB1140CF
:100E50008A49085C8DF805000A208DF806000721F4
:100E60006846FFF782FF1CBD7FB505460C46002192
:100E7000284603F031F804D8804800788DF8000047
:100E800004E02D208DF8000085F00045284602F092
:100E900003FFC0B2642190FBF1F07849085C8DF843
:100EA0000100284602F0F8FEC0B2642190FBF1F286
:100EB00001FB12000A2190FBF1F07049085C8DF8EB
:100EC0000200284602F0E8FEC0B20A2190FBF1F2CF
:100ED00001FB12006949085C8DF803002E208DF893
:100EE00004006749284602F02BFF064602F0D4FEB4
:100EF000C0B20A2190FBF1F201FB12005F49085CCD
:100F00008DF805005F49284602F01AFF064602F0F8
:100F1000C3FEC0B20A2190FBF1F201FB1200574957
:100F2000085C8DF806002C208DF807000021204673
:100F300002F0D2FF04D8514800788DF8080004E090
:100F40002D208DF8080084F00044204602F0A4FE15
:100F5000C0B2642190FBF1F04849085C8DF80900AB
:100F6000204602F099FEC0B2642190FBF1F201FB31
:100F700012000A2190FBF1F04049085C8DF80A004C
:100F8000204602F089FEC0B20A2190FBF1F201FB7B
:100F900012003A49085C8DF80B002E208DF80C00E9
:100FA0003749204602F0CCFE064602F075FEC0B27C
:100FB0000A2190FBF1F201FB12003049085C8DF828
:100FC0000D003049204602F0BBFE064602F064FEEA
:100FD000C0B20A2190FBF1F201FB12002749085C24
:100FE0008DF80E000A208DF80F0010216846FFF7DB
:100FF000BCFE7FBD10B540F225511E4802F026FB15
:1010000060B140F225511B4802F04AFB194802F03A
:101010009DFAC4B22146174802F094FA40F22661C4
:10102000144802F013FB08B340F22661114802F0A5
:1010300037FB0F48007AC8B90D48C0880C49898829
:10104000884206D101200A490872086802F081FC32
:101050000CE007480068064AD288815C054802F027
:1010600071FA0348C088401C0149C88010BD0000C7
:10107000B000002000380140000801403A3F00085D
:10108000000020410000C84208B54FF40050ADF800
:10109000000010208DF8030002208DF80200694640
:1010A000014800F05FFD08BD00100140704710B519
:1010B00006490868FFF775F84FF4A0414FF000604B
:1010C00000F04DF901494868804710BD0050000804
:1010D0002DE9F04105460C46164604274FF000085E
:1010E0000FE02188284600F066FB0746042F02D057
:1010F0000120BDE8F08108F102001FFA80F8AD1C64
:10110000A41CB04501DA042FEBD00020F1E72DE953
:10111000F04105460C46164604274FF000080FE044
:101120002846216800F014FB0746042F02D0012056
:10113000BDE8F08108F101001FFA80F82D1D241D83
:10114000B04501DA042FEBD00020F1E710B50B46D3
:10115000002104E010F8014B5C544C1CA1B29142F8
:10116000F8DB10BD2DE9F047ADF5806D06460F4662
:1011700015464FF0040A00F0D6F94FEA96294FEAD7
:101180008929C6F309084FF4806269464846FFF78B
:10119000DDFF002408E008EB04001DF80000FF2834
:1011A00000D003E0601C84B2AC42F4DB00BFAC4270
:1011B00020DA484600F0FCF98246BAF1040F04D068
:1011C00001200DF5806DBDE8F087002406E0385D54
:1011D00008EB04010DF80100601C84B2AC42F6DBA0
:1011E0004FF4806269464846FFF772FF0446012CBF
:1011F00009D1E6E72A4639463046FFF769FF04463B
:10120000012C00D1DDE700F09AF90020D9E72DE9A3
:10121000F04104460D46042700F085F900260CE055
:10122000204600F0C5F9074604F58064042F02D07B
:101230000120BDE8F081701C86B2AE42F0DB00F008
:101240007EF90020F5E770B505460E4614464FF6C8
:10125000FF7000EA840231462846FFF783FF70BD25
:1012600070B505460E4614464FF6FF7000EA84023C
:1012700031462846FFF76AFF70BD00001A48007823
:101280001949491D0978084417490A310978084461
:10129000164908711448401C00781349891D0978C3
:1012A000084411490B31097808441049C8700E48A8
:1012B000801C00780C49C91D097808440B498870C6
:1012C0000948C01C007808490831097808440749D2
:1012D00048700548001D0078034909310978084421
:1012E0000249087070470000E8F7FF1F2600002041
:1012F00031490143314A1160704770B50021002324
:101300000F22C47804B32D4C246804F4E064C4F5BF
:10131000E064210AC1F10403CA40447804FA03F1ED
:101320008478144021430901254C0678A15504789E
:1013300004F01F050124AC4005786D11AD0005F1E6
:10134000E025C5F8004109E0047804F01F050124F8
:10135000AC401C4D0678761145F8264070BD1A4AFF
:101360000A400243154B1B1F1A60704739B1134ADC
:10137000121D12680243114B1B1D1A6006E00F4A32
:10138000121D126882430D4B1B1D1A607047042802
:1013900008D14FF0E021096941F004014FF0E0224B
:1013A000116107E04FF0E021096921F004014FF0DD
:1013B000E0221161704700000000FA050CED00E02A
:1013C00000E400E080E100E080FFFF1F00204449CE
:1013D0000860091D0860091D0860091D0860414872
:1013E0003F4914310860704700213D498279002A45
:1013F0003AD00A46126803689A430B461A600A1DDF
:10140000126803689A430B1D1A60027911440A6836
:1014100003681A430A60324A0832126803689A4322
:101420002F4B08331A601A1D126803689A432C4B1D
:101430000C331A604279102A0ED11A1F1268036801
:101440001A43274B08331A601A1D126803681A439F
:10145000234B0C331A600DE02149427911440A688C
:1014600003681A430A6005E0027911440A680368B8
:101470009A430A6070470021016001710C2141719B
:101480000021817170471649103109680143144ADF
:1014900010321160704701460020114A1432126860
:1014A0000A400AB1012000E0002070470C491431C5
:1014B00008607047014600200022094B1B6803EAC0
:1014C0000102074B14331B680B4013B10AB1012012
:1014D00000E00020704702491431086070470000A6
:1014E00000040140FFFF0F0001460020FE4A106883
:1014F00000F03800084310607047FB49096821F08C
:101500000801F94A116011460968014311607047EA
:10151000F549096821F01001F34A11601146096884
:10152000014311607047F148EF494860F048486056
:101530007047EE48EC494860ED4848607047EA481B
:10154000006940F08000E84908617047E64800699A
:1015500040F08000E449086170470420E249C9680E
:1015600001F0010109B101200EE0DF49C96801F075
:10157000040109B1022007E0DB49C96801F010014C
:1015800009B1032000E00420704700B5024604239F
:10159000FFF7E3FF034603E0FFF7DFFF0346521EBA
:1015A000012B01D1002AF7D102B90523184600BD4D
:1015B00030B5044604254FF43020FFF7E6FF05461A
:1015C000042D17D1C848006940F00200C6490861DF
:1015D00008464461006940F0400008614FF4302043
:1015E000FFF7D3FF0546C048006941F6FD7108408A
:1015F000BD490861284630BD10B504244FF43020A1
:10160000FFF7C3FF0446042C16D1B748006940F029
:101610000400B54908610846006940F040000861CF
:101620004FF43020FFF7B1FF0446AF48006941F6A0
:10163000FB710840AC490861204610BD00B5024668
:101640000423FFF78AFF034603E0FFF786FF034604
:10165000521E012B01D1002AF7D102B905231846E9
:1016600000BD10B504244FF43020FFF7E7FF044617
:10167000042C16D19C48006940F004009A49086186
:101680000846006940F0400008614FF43020FFF741
:10169000D5FF04469448006941F6FB710840924921
:1016A0000861204610BD00208F49C96901F0020180
:1016B00009B1012000E00020704730B5A5250424C1
:1016C000FFF7F1FF00B100254FF43020FFF75DFF79
:1016D0000446042C3AD18548834988608448886050
:1016E0000846006940F0200008610846006940F0A3
:1016F000400008614FF43020FFF747FF0446042CF8
:101700001BD17948006941F6DF71084076490861CC
:101710000846006940F01000086176480580E00244
:10172000FFF733FF0446052C10D06F48006941F6DF
:10173000EF7108406C49086108E0052C06D06A4842
:10174000006941F6EF71084067490861204630BDE5
:1017500078B506460C46042500200090E802FFF705
:1017600014FF0546042D24D15F48006940F00100B4
:101770005D4908613480E802FFF707FF0546042D44
:1017800010D1B01C0090200C00990880E802FFF7EF
:10179000FCFE05465448006941F6FE710840524976
:1017A000086106E05048006941F6FE7108404E4964
:1017B0000861284678BD70B504460D460426F0023F
:1017C000FFF7E3FE0646042E11D14748006940F0BA
:1017D0000100454908612580F002FFF7D6FE064664
:1017E0004148006941F6FE7108403F4908613046B2
:1017F00070BD70B505460E460424E002FFF7C5FE35
:101800000446042C17D13948374988603848886025
:101810000846006940F0100008612E80E002FFF7E2
:10182000B4FE0446052C06D02F48006941F6EF713E
:1018300008402D490861204670BD2DE9F04304465B
:101840004FF6FF763746B046B1460425E443E6B28C
:10185000C4F30727C4F307484FEA1469E802FFF707
:1018600094FE0546042D49D120481F498860204830
:1018700088600846006940F010000861FF2E06D01D
:101880001C4808300680E802FFF77FFE0546042D5D
:1018900008D1FF2F06D017480A300780E802FFF76B
:1018A00074FE0546042D0AD1B8F1FF0F07D0114888
:1018B0000C30A0F80080E802FFF767FE0546042D13
:1018C0000AD1B9F1FF0F07D00A480E30A0F80090F6
:1018D000E802FFF75AFE0546052D0FD002480069C1
:1018E00041F6EF71084007E0002002402301674500
:1018F000AB89EFCD00F8FF1F664908612846BDE8B7
:10190000F08330B5054604244FF43020FFF73DFE48
:101910000446042C41D160485E4988605F48886075
:101920000846006940F0200008610846006940F060
:10193000400008614FF43020FFF727FE0446042CD6
:1019400022D15448006941F6DF71084051490861CD
:101950000846006940F0100008611DB100205049A0
:10196000088002E0A5204E4908804FF43020FFF7A0
:101970000CFE0446052C10D04648006941F6EF7174
:1019800008404449086108E0052C06D04148006938
:1019900041F6DF7108403F490861204630BDF0B58F
:1019A00005460E46174604243B483A4988603B48A2
:1019B0008860E002FFF7E9FD0446042C19D13548A0
:1019C000006940F010003349086147F0F8003043E7
:1019D00028433349891C0880E002FFF7D6FD0446FE
:1019E000052C06D02B48006941F6EF7108402949C3
:1019F00008612046F0BD2748C06980087047254827
:101A0000006A704700202349096801F0200109B1EC
:101A1000012000E00020704729B11E4A12690243EC
:101A20001C4B1A6104E01B4A12698243194B1A616C
:101A3000704701460020012908D1164AD26902F0F8
:101A400001020AB1012008E0002006E0114AD26834
:101A50000A400AB1012000E0002070470D49C8602B
:101A6000704704200B49C96801F0010109B1012048
:101A70000EE00849C96801F0040109B1022007E03D
:101A80000449C96801F0100109B1032000E00420F5
:101A9000704700000020024023016745AB89EFCD6D
:101AA00000F8FF1F10B50446CC48844208D101213C
:101AB000042000F02DFB0021042000F029FB46E06B
:101AC000C748844208D10121082000F021FB0021F1
:101AD000082000F01DFB3AE0C248844208D10121F1
:101AE000102000F015FB0021102000F011FB2EE06B
:101AF000BD48844208D10121202000F009FB0021CB
:101B0000202000F005FB22E0B848844208D10121E2
:101B1000402000F0FDFA0021402000F0F9FA16E024
:101B2000B348844208D10121802000F0F1FA00215D
:101B3000802000F0EDFA0AE0AE48844207D101218E
:101B4000801500F0E5FA0021A01500F0E1FA10BDC3
:101B500010B50121084600F0DBFA0021012000F059
:101B6000D7FA10BD2DE9F0410246002500260020DD
:101B700000230024002791F803C00CF00F0591F812
:101B800003C00CF0100CBCF1000F03D091F802C0A0
:101B90004CEA050591F800C0BCF1000F31D0146883
:101BA00000202BE04FF0010C0CFA00F3B1F800C05C
:101BB0000CEA03069E4220D183004FF00F0C0CFA72
:101BC00003F7BC4305FA03FC4CEA040491F803C094
:101BD000BCF1280F06D14FF0010C0CFA00FCC2F842
:101BE00014C00AE091F803C0BCF1480F05D14FF0D2
:101BF000010C0CFA00FCC2F810C0401C0828D1D31C
:101C00001460B1F800C0BCF1FF0F34DD546800204F
:101C10002EE000F1080C4FF0010808FA0CF3B1F8BF
:101C200000C00CEA03069E4221D183004FF00F0C46
:101C30000CFA03F7BC4305FA03FC4CEA040491F8E0
:101C400003C0BCF1280F05D100F1080C08FA0CF80C
:101C5000C2F8148091F803C0BCF1480F07D100F11D
:101C6000080C4FF0010808FA0CF8C2F81080401C6C
:101C70000828CED35460BDE8F0814FF6FF71018093
:101C8000022181700421C1707047024600209368D0
:101C90000B400BB1012000E000207047014688682E
:101CA00080B2704702460020D3680B400BB1012080
:101CB00000E0002070470146C86880B270470161AB
:101CC0007047416170470AB1016100E041617047AE
:101CD000C16070474FF480320A4382618161826142
:101CE00082698269704702460020434B18684FF6AC
:101CF0008073184040EA021008433F4B1860704759
:101D00003E49C8617047F0B50A460023002400210F
:101D1000002500F00046B6F1004F02D1364EF169C1
:101D200001E0354E7168C0F3034583B200F44016FC
:101D3000B6F5401F08D121F070612F4E766826F06D
:101D400070662D4F7E6012E000F48016B6F5801F9D
:101D500006D1032606FA05F4A14341F0706106E0BE
:101D6000460D360103FA06F6B14341F0706122B127
:101D7000460D360103FA06F6314300F00046B6F18F
:101D8000004F02D11C4EF16101E01B4E7160F0BDAD
:101D900030B500228B071C0F0F2303FA04F2164BF9
:101DA00008338C1053F824309343134C08348D10AF
:101DB00044F8253023468C1053F824308C07240F28
:101DC00000FA04F423430C4C08348D1044F82530F9
:101DD00030BD0A49DC31086070470000000801404E
:101DE000000C0140001001400014014000180140A7
:101DF000001C014000200140000001400000204282
:101E0000DF48006840F00100DD490860084640688E
:101E1000DC490840DA49486008460068DA49084069
:101E2000D74908600846006820F48020086008460A
:101E3000406820F4FE0048604FF41F00886070473F
:101E4000CF49096821F48031CD4A116011460968F3
:101E500021F480211160B0F5803F03D0B0F5802FD0
:101E60000ED106E0C649096841F48031C44A1160C8
:101E700007E0C349096841F4A021C14A116000E0AC
:101E800000BF00BF704710B50146002200230020AC
:101E90004A11012A02D1BA4C236806E0022A02D173
:101EA000B74C236A01E0B64C636A01F01F020124BB
:101EB00094401C400CB1012000E0002010BD38B55A
:101EC000002000900024002500BF3120FFF7DBFF39
:101ED00005460098401C00900098B0F5A06F01D016
:101EE000002DF2D03120FFF7CEFF08B1012400E031
:101EF0000024204638BD01460020A14A106820F089
:101F0000F80040EAC10010607047A04908607047BF
:101F1000024600209A4B586820F47C1042EA0103E4
:101F20001843974B586070479849086670470146B8
:101F30000020934A506820F0030008435060704727
:101F40008F48406800F00C007047014600208C4A22
:101F5000506820F0F00008435060704701460020B0
:101F6000874A506820F4E06008435060704701469B
:101F70000020834A506820F4605040EAC10050605D
:101F8000704729B17E4A527A02437D4B5A7204E06F
:101F90007B4A527A82437A4B5A7270477B49D831D6
:101FA0000860704701460020754A506820F44040A0
:101FB0000843506070470021714A20321170704A06
:101FC00082F82010012802D004280AD104E001215F
:101FD0006B4A2032117005E00521694A20321170E8
:101FE00000E000BF00BF704769490860704764495E
:101FF000096A0143624A11627047654944390860C1
:10200000704730B500210022002400235C4D6D682C
:1020100005F00C0121B1042905D0082923D105E0E0
:102020005C4D056022E05B4D05601FE0544D6D681E
:1020300005F47012524D6D6805F48034022505EBED
:1020400092421CB9544D554305600BE04C4D6D68F0
:1020500005F400351DB1504D5543056002E04D4D6E
:102060005543056002E04B4D056000BF00BF444D85
:102070006D6805F0F0010909484D6B5C0568DD40AD
:1020800045603F4D6D6805F4E061090A434D6B5CA6
:102090004568DD4085603A4D6D6805F46051C90AB8
:1020A0003E4D6B5C4568DD40C560354D6D6805F49F
:1020B0004041890B3A4D6B5CC568B5FBF3F5056192
:1020C00030BD29B12E4A526902432D4B5A6104E0BA
:1020D0002B4A526982432A4B5A61704729B1284AD8
:1020E00092690243264B9A6104E0254A9269824331
:1020F000234B9A61704729B1214AD2690243204B90
:10210000DA6104E01E4AD26982431D4BDA617047EE
:1021100029B11B4AD2680243194BDA6004E0184A1D
:10212000D2688243164BDA60704729B1144A1269AB
:102130000243134B1A6104E0114A12698243104BA7
:102140001A61704712494039086070470F49C864E6
:1021500070470B49C87170470948406A40F0807069
:1021600007494862704701460020054A92680A40C4
:102170000AB1012000E000207047014988727047D1
:10218000001002400000FFF8FFFFF6FE0000424290
:102190008004424200127A0000093D002B0000201A
:1021A0003B00002010B50446BE48844208D10121FE
:1021B0008014FFF7ADFF0021A014FFF7A9FF16E080
:1021C000B948844208D101210014FFF7AEFF002175
:1021D0002014FFF7AAFF0AE0B448844207D1012186
:1021E000C013FFF7A2FF0021E013FFF79EFF10BD11
:1021F00010B50022028802F441520B884C88234318
:102200008C882343CC8823430C8923434C89234364
:102210008C892343CC8923431A430280838B4FF25A
:10222000FF74234083830B8A038210BD2DE9F04F96
:1022300085B005460C464FF0000902274FF0000814
:102240004FF0010B0026B246A88B4FF24001084028
:10225000A88302202884B5F81C90A068022801D128
:1022600000BF38E0A08810B94FF0010B01E04FF03B
:10227000020B8D48854200D100E000BF6846FFF7A1
:10228000C0FEDDF800A0E088B0F5007F0AD14FEA7B
:102290001A2000EB80004000A168B0FBF1F0401D67
:1022A00086B20BE04FEA4B10BAFBF0F000EB800077
:1022B0004000A168B0FBF1F0401D86B20A20B6FBD9
:1022C000F0F606F00108A6EB0800C0F34F074FF642
:1022D000FF7000EA0828022F01DBFF2F02DD022732
:1022E0004FF00008E08840EA080038432884A088BE
:1022F000A1890843618808432188084340F40060AD
:1023000040EA0909A5F81C9005B0BDE8F08F00214E
:10231000018041808180C180018141818181C181B1
:102320000721018270470021018041808180C180A6
:102330000221816000218181704721B1028842F031
:102340004002028004E002884FF6BF731A40028008
:10235000704721B1828B42F48062828304E0828BD9
:102360004FF6FF331A408283704730B500240023B4
:102370000C110125A540ABB21AB185881D4385809B
:1023800002E085889D43858030BD1AB183880B4368
:10239000838002E083888B4383807047818170470C
:1023A0000146888970474FF6FF62914204D0028847
:1023B00042F48072028004E002884FF6FF631A4004
:1023C0000280704721B1828842F00402828004E0DA
:1023D00082884FF6FB731A408280704702884FF262
:1023E000FF731A40028002880A4302807047018806
:1023F00041F480510180704721B1028842F40052BB
:10240000028004E002884DF6FF731A400280704794
:1024100002460020012901D0108B00E0908A70470D
:102420000146088A7047B1F5804F04D1028842F412
:102430008042028004E002884BF6FF731A4002805B
:1024400070470246002013890B400BB1012000E0C9
:1024500000207047CA4302817047F0B50246002051
:1024600000240023002501F00F070126BE40B4B26E
:102470000B1101269E40B3B2968806EA0305168921
:10248000264016B10DB1012000E00020F0BD10B5CE
:10249000002201F00F040123A3409AB2D343038129
:1024A00010BD00000030014000380040003C0040FA
:1024B00010B50446FE48844208D10121C014FFF73C
:1024C00027FE0021E014FFF723FEC4E0B4F1804FA3
:1024D00008D101210846FFF728FE00210120FFF75F
:1024E00024FEB8E0F348844208D101210220FFF71E
:1024F0001CFE00210220FFF718FEACE0EE488442EB
:1025000008D101210420FFF710FE00210420FFF76D
:102510000CFEA0E0E948844208D101210820FFF721
:1025200004FE00210820FFF700FE94E0E448844206
:1025300008D101211020FFF7F8FD00211020FFF73E
:10254000F4FD88E0DF48844208D101212020FFF714
:10255000ECFD00212020FFF7E8FD7CE0DA48844212
:1025600008D101214014FFF7D3FD00216014FFF7CB
:10257000CFFD70E0D548844209D10121C804FFF79E
:10258000C7FD00214FF40020FFF7C2FD63E0D048F3
:10259000844209D101210805FFF7BAFD00214FF45B
:1025A0008010FFF7B5FD56E0CA48844209D10121E9
:1025B0004805FFF7ADFD00214FF40010FFF7A8FD1F
:1025C00049E0C548844208D101214020FFF7ADFD14
:1025D00000214020FFF7A9FD3DE0C048844208D11A
:1025E00001218020FFF7A1FD00218020FFF79DFD44
:1025F00031E0BB48844208D101218015FFF795FDE9
:102600000021A015FFF791FD25E0B648844209D1CD
:1026100001210804FFF77CFD00214FF48030FFF713
:1026200077FD18E0B048844209D101214804FFF742
:102630006FFD00214FF40030FFF76AFD0BE0AB485F
:10264000844208D101218804FFF762FD00214FF484
:102650008020FFF75DFD10BD00220288944B984258
:102660000ED0994B98420BD0B0F1804F08D0914BCF
:10267000984205D0904B984202D0904B984204D19A
:102680004FF68F731A404B881A438D4B984207D0F0
:102690008C4B984204D04FF6FF431A40CB881A4324
:1026A00002808B8883850B880385814B98420BD0F1
:1026B000854B984208D08B4B984205D08A4B984264
:1026C00002D08A4B984201D10B7A03860123838280
:1026D000704770B5002400220023058C4FF6FE766B
:1026E00035400584028C8388048B4FF68F752C400F
:1026F000B51E2C400D882C43751E2A400D892A4397
:102700004D882A436A4DA8420BD06F4DA84208D08D
:10271000744DA84205D0744DA84202D0734DA84212
:1027200013D14FF6F7752A404D892A434FF6FB75B2
:102730002A408D882A434FF6FF652B404FF6FF5500
:102740002B408D892B43CD892B4383800483CD88F7
:102750008586028470BD70B5002400220023058C9C
:102760004FF6EF7635400584028C8388048B48F65B
:10277000FF752C404FF6FF452C400D884FF6FF7635
:1027800006EA05252C434FF6DF752A400D8906EA37
:1027900005152A434D8806EA05152A43444DA842EB
:1027A00002D0494DA8421DD14FF67F752A404D8970
:1027B0004FF6FF7606EA05152A434FF6BF752A4005
:1027C0008D8806EA05152A434FF6FF352B404FF258
:1027D000FF752B408D8906EA85052B43CD8906EAD6
:1027E00085052B4383800483CD880587028470BDD3
:1027F00070B5002400220023058C4FF6FF6635409B
:102800000584028C8388848B4FF68F752C404FF69D
:10281000FC752C400D882C434FF6FF552A400D893E
:102820004FF6FF7606EA05252A434D8806EA052578
:102830002A431F4DA84202D0234DA8421DD14FF27A
:10284000FF752A404D894FF6FF7606EA05252A4393
:102850004FF6FF352A408D8806EA05252A434EF6B5
:10286000FF752B404DF6FF752B408D8906EA051547
:102870002B43CD8906EA05152B4383808483CD88BD
:102880008587028470BD70B5002200230024058C6A
:102890004EF6FF7635400584038C8488828B48F69B
:1028A000FF752A404FF6FF452A400D8820E00000C2
:1028B000002C01400004004000080040000C0040D3
:1028C000001000400014004000340140004C014062
:1028D000005001400054014000180040001C00401E
:1028E00000200040004001400044014000480140F9
:1028F0004FF6FF7606EA05252A434DF6FF752B4075
:102900000D8906EA05352B434D8806EA05352B432C
:10291000FA4DA84202D0FA4DA84208D14BF6FF75F5
:102920002C408D894FF6FF7606EA85152C4384806E
:102930008283CD88A0F84050038470BD828B4FF213
:10294000FF331A408283828B4FF6FF7303EA012321
:102950001A4382837047F0B50C46154600220021C9
:102960000026078C4EF6FF7C07EA0C070784828B53
:10297000018C4FF6FF7707EA043640F6FF473A40EE
:102980004FF6FF7707EA05273A434FF6FF7707EA46
:1029900003373A43D94FB8420ED0D94FB8420BD083
:1029A000B0F1804F08D0D74FB84205D0D64FB842CB
:1029B00002D0D64FB84206D14DF6FF77394046F4E3
:1029C0008057394305E047F6FF57394044F48057B4
:1029D000394382830184F0BD828B4FF6F3731A4032
:1029E0008283828B0A4382837047F0B50C4615467A
:1029F000002200210026078C4FF6FF6C07EA0C0727
:102A00000784828B018C4FF6FF7707EA04264FF686
:102A10000C773A404FF6FF7707EA03172F433A4304
:102A2000B64FB8420ED0B64FB8420BD0B0F1804F7F
:102A300008D0B44FB84205D0B34FB84202D0B34F1C
:102A4000B84206D14FF6FF57394046F480773943F4
:102A500005E04FF2FF57394044F4807739438283D1
:102A60000184F0BD028B4FF2FF331A400283028BC8
:102A70004FF6FF7303EA01231A4302837047F0B550
:102A80000C461546002200210026078C4FF6EF7CED
:102A900007EA0C070784028B018C4FF6FF7707EAE1
:102AA000041640F6FF473A404FF6FF7707EA033730
:102AB0003A434FF6FF7707EA05273A438F4FB8426C
:102AC0000ED08F4FB8420BD0B0F1804F08D08D4F51
:102AD000B84205D08C4FB84202D08C4FB84206D1D4
:102AE0004FF6DF77394046F01007394305E04FF6DF
:102AF0005F77394044F01007394302830184F0BD09
:102B0000028B4FF6F3731A400283028B0A4302834F
:102B10007047F0B50C46154600220021068C4FF692
:102B2000FE773E400684028B018C4FF60C763240D5
:102B30007E1C06EA03162E433243704EB0420ED07E
:102B40006F4EB0420BD0B0F1804F08D06D4EB04206
:102B500005D06D4EB04202D06C4EB04206D14FF659
:102B6000FD76314044F00106314305E04FF6F5763D
:102B7000314044F00106314302830184F0BD70B559
:102B800005460C465D4885420ED05D4885420BD017
:102B9000B5F1804F08D05B48854205D05A48854240
:102BA00002D05A48854200D100E000BF208850B9C9
:102BB0002389A28861882846FFF7ABFFE188284671
:102BC000FFF79EFF25E0208804280AD12389A288E8
:102BD00061882846FFF753FFE1882846FFF742FF48
:102BE00017E0208808280AD12389A288618828460E
:102BF000FFF7FBFEE1882846FFF7EEFE09E0238998
:102C0000A28861882846FFF7A6FEE1882846FFF7DC
:102C100095FE70BD2DE9F04105460C4600260127C2
:102C2000608808B9022600E00026A088012801D1AA
:102C3000022700E001272088A0B92389A2886188A3
:102C40002846FFF766FFE1882846FFF759FF2389EA
:102C50003A4631462846FFF712FFE1882846FFF73B
:102C600001FF13E02389A28861882846FFF707FF48
:102C7000E1882846FFF7F6FE23893A463146284682
:102C8000FFF747FFE1882846FFF73AFFBDE8F081EC
:102C90000A884B881A438B881A43CB881A430B89BE
:102CA0001A434B891A438B891A43A0F84420704772
:102CB0004FF6FF71818000210180C1804180017247
:102CC00070470021018041808180C1800181418164
:102CD0008181C18170470021018041800121818073
:102CE0000021C180018170470021018041808180E5
:102CF000C18001814181818170470000002C014029
:102D0000003401400004004000080040000C004076
:102D100021B1028842F00102028004E002884FF6ED
:102D2000FE731A400280704731B1B0F8442042F47B
:102D30000042A0F8442005E0B0F84420C2F30E029F
:102D4000A0F8442070471AB183890B43838102E0C5
:102D500083898B43838170478182704741EA0203F4
:102D6000A0F8483070471AB183890B43838102E091
:102D700083898B438381704701894FF6F872114034
:102D8000018170470A46002101894FF68F7319406F
:102D900011430181704730B504460D46294620464F
:102DA000FFF7F0FF208940F00700208130BD2DE9BA
:102DB000F04104460D4616461F46602D06D13B469F
:102DC000012231462046FFF75AFE05E03B4601222C
:102DD00031462046FFF79DFE29462046FFF7D2FFE9
:102DE000208940F007002081BDE8F08130B50C4615
:102DF00000210189C9B24FF6FF7505EA0325154385
:102E000025432943018130BD2DE9F04105460E4699
:102E100017469846002443463A4631462846FFF76F
:102E2000E5FF2C894FF6F870044044F007044FF694
:102E30008F70044044F070042C81BDE8F081F0B53F
:102E400004460D4616461F463B4632462946204656
:102E5000FFF7CCFF208940F480402081F0BD018540
:102E6000828270470A46002101884FF68F7319400D
:102E7000114301807047F0B50C4615461E460021EF
:102E8000002200230189028B038C4FF6F87739402A
:102E900021434FF6FC473A4040F201173A434FF6C0
:102EA000DD773B404FF6FF7707EA06172F433B439A
:102EB000018102830384F0BD0A460021018B4FF695
:102EC0008F7319401143018370470A460021018B1B
:102ED00048F6FF7319404FF6FF7303EA02231943C4
:102EE000018370470A460021818B4FF68F7319408A
:102EF0001143818370470A460021818B48F6FF7396
:102F000019404FF6FF7303EA022319438183704788
:102F100021B1028842F08002028004E002884FF66C
:102F20007F731A400280704721B1828842F0040208
:102F3000828004E082884FF6FB731A4082807047DB
:102F400021B1828842F00802828004E082884FF634
:102F5000F7731A408280704721B1828842F00102E3
:102F6000828004E082884FF6FE731A4082807047A8
:102F70000A460021018B4FF6F77319401143018374
:102F800070470A460021018B4FF2FF7319404FF63C
:102F9000FF7303EA02231943018370470A460021A5
:102FA000818B4FF6F77319401143818370470A46AE
:102FB0000021818B4FF2FF7319404FF6FF7303EA34
:102FC00002231943818370470A460021018B4FF683
:102FD000FB7319401143018370470A460021018B9E
:102FE0004FF6FF3319404FF6FF7303EA02231943EC
:102FF000018370470A460021818B4FF6FB7319400D
:103000001143818370470A460021818B4FF6FF33BD
:1030100019404FF6FF7303EA022319438183704777
:103020000A460021018B4FF67F731940114301833B
:1030300070470A460021018BC1F30E014FF6FF7362
:1030400003EA02231943018370470A460021818B5A
:103050004FF67F7319401143818370470A46002160
:10306000818BC1F30E014FF6FF7303EA022319436C
:10307000818370470A460021018C4FF6FD73194089
:103080001143018470470A460021018C4FF6F77303
:1030900019401143018470470A460021018C4FF604
:1030A000DF7319404FF6FF7303EA021319430184DB
:1030B00070470A460021018C4FF67F7319404FF686
:1030C000FF7303EA02131943018470470A46002183
:1030D000018C4FF6FF5319404FF6FF7303EA0223AA
:1030E0001943018470470A460021018C4FF2FF7397
:1030F00019404FF6FF7303EA022319430184704716
:103100000A460021018C4DF6FF7319404FF6FF73FC
:1031100003EA023319430184704730B500230124C8
:103120008C40A3B2048C9C430484048C02FA01F505
:10313000ADB22C43048430BD30B5002304248C4050
:10314000A3B2048C9C430484048C02FA01F5ADB252
:103150002C43048430BD70B503460020002418467B
:10316000183001258D40ACB21D8CA5431D8409B1DA
:10317000082909D100EB6100056825F0700505609C
:103180000568154305600EE00D1FC5F34E05284484
:10319000056825F4E045056005684FF6FF7606EA08
:1031A00002263543056070BD21B1028842F002025B
:1031B000028004E002884FF6FD731A4002807047D7
:1031C00021B1028842F00402028004E002884FF636
:1031D000FB731A400280704721B1828842F080025E
:1031E000828004E082884FF67F731A4082807047A5
:1031F00002884FF6F7731A40028002880A43028061
:10320000704782884FF68F731A40828082880A4303
:103210008280704702894FF6F8731A400281028952
:103220000A430281704702894FF67F731A40028178
:1032300002890A4302817047818470478185704703
:10324000818670470187704781877047A0F84010DA
:10325000704702884FF6FF431A40028002880A43F3
:10326000028070470146888E70470146088F70477C
:103270000146888F70470146B1F84000704701460B
:10328000888C70470146088D704702460020138ADB
:103290000B400BB1012000E000207047CA430282BE
:1032A000704730B50246002000230024158A05EA45
:1032B0000103958905EA010413B10CB1012000E076
:1032C000002030BDCA4302827047000010B504469A
:1032D000FB48844209D101218803FEF719FF002130
:1032E0004FF48040FEF714FF32E0F648844209D1E3
:1032F00001214804FEF719FF00214FF40030FEF7CA
:1033000014FF25E0F048844209D101218804FEF72A
:103310000CFF00214FF48020FEF707FF18E0EB4878
:10332000844209D10121C804FEF7FFFE00214FF4B9
:103330000020FEF7FAFE0BE0E548844208D10121A7
:103340000805FEF7F2FE00214FF48010FEF7EDFEB7
:1033500010BD2DE9F04786B005460E460024A24672
:1033600000BFA1460027B08900B100BF2F462C8ABC
:103370004CF6FF700440F08804432C82AC894EF672
:10338000F3100440B088318908437189084304432D
:10339000AC81AC8A4FF6FF400440B0890443AC8254
:1033A00001A8FEF72EFEC648874202D1DDF810A024
:1033B00001E0DDF80CA0A88900F4004040B10AEB60
:1033C000CA0000EB0A1031684900B0FBF1F807E0D1
:1033D0000AEBCA0000EB0A1031688900B0FBF1F873
:1033E0006420B8FBF0F004012009642101FB10897E
:1033F000A88900F4004040B1322000EBC900B0FBC6
:10340000F1F000F00700044308E0322000EB09105F
:103410006421B0FBF1F000F00F0004432C8106B0F2
:10342000BDE8F0874FF41651016000218180C18012
:1034300001810C21418100218181704710B5024634
:103440000020108A4FF2FF0318400B884C8823435A
:103450008C882343CC8823431843108210BD00215D
:10346000018041808180C180704721B1828942F40E
:103470000052828104E082894DF6FF731A408281F6
:103480007047F0B50346002400260025002040F6D2
:103490006A17B94200D100BF1846C1F3421401F0C7
:1034A0001F06012707FA06F5012C01D10C3004E0B4
:1034B000022C01D1103000E014301AB107682F43FC
:1034C000076002E00768AF430760F0BD1AB1838A66
:1034D0000B43838202E0838A8B4383827047028A94
:1034E0004FF6F0731A400282028A0A430282704742
:1034F00082894FF2FF731A40828182890A43828156
:10350000704721B1828942F00202828104E08289FF
:103510004FF6FD731A4082817047028A4FF6DF73BF
:103520001A400282028A0A430282704721B1028A4B
:1035300042F48042028204E0028A4BF6FF731A4092
:1035400002827047C1F30802828070470146888872
:10355000C0F308007047818941F001018181704703
:10356000028BD2B20283028B42EA012202837047AD
:10357000028B02F47F420283028B0A43028370476C
:1035800021B1828A42F02002828204E0828A4FF6D0
:10359000DF731A408282704721B1828A42F01002A2
:1035A000828204E0828A4FF6EF731A40828270476B
:1035B00021B1828A42F00802828204E0828A4FF6B8
:1035C000F7731A408282704721B1828942F4004227
:1035D000828103E08289C2F30E028281704721B1A9
:1035E000828A42F40062828204E0828A4FF2FF7390
:1035F0001A4082827047828A4FF6FB731A40828299
:10360000828A0A438282704721B1828A42F0020292
:10361000828204E0828A4FF6FD731A4082827047EC
:1036200002460020B1F5007F00D100BF13880B4097
:103630000BB1012000E00020704701F40072B2F5E8
:10364000007F00D100BFCA430280704770B50246B8
:10365000002400230025002040F66A16B14200D164
:1036600000BFC1F3421501F01F03012606FA03F360
:10367000012D02D19689334006E0022D02D1168A2F
:10368000334001E0968A33400C12012606FA04F416
:103690001688344013B10CB1012000E0002070BD49
:1036A00010B50022002340F66A14A14200D100BFE9
:1036B0000A1201249440A3B2DC43048010BD000030
:1036C000003801400044004000480040004C0040E9
:1036D000005000400CB50020019000906C4800683C
:1036E00040F480306A49086000BF6948006800F40F
:1036F000003000900198401C0190009818B9019882
:10370000B0F5A06FF1D16248006800F4003010B14C
:103710000120009001E0002000900098012843D192
:103720005C48006840F010005A490860084600688C
:1037300020F0030008600846006840F002000860BE
:103740005348406852494860084640684860084607
:10375000406840F4806048600846406820F47C106F
:1037600048600846406840F4E81048600846006831
:1037700040F08070086000BF4548006800F00070AD
:103780000028F9D04248406820F0030040494860D2
:103790000846406840F00200486000BF3C4840686E
:1037A00000F00C000828F9D10CBD10B5FFF792FF0E
:1037B00010BD10B53648006840F00100344908607B
:1037C0000846406834490840314948600846006866
:1037D000324908402E4908600846006820F48020DD
:1037E00008600846406820F4FE0048604FF41F005F
:1037F0008860FFF7DAFF4FF000602949086010BDCC
:1038000010B5002100200022214B5B6803F00C0161
:1038100021B1042906D0082928D107E0214B224CE8
:10382000236027E01F4B204C236023E0184B5B688C
:1038300003F47010164B5B6803F48032022303EB31
:10384000904022B9194B4343174C23600DE0104BB5
:103850005B6803F4003323B1144B4343124C2360E1
:1038600003E0104B4343104C236003E00D4B0E4C20
:10387000236000BF00BF064B5B68C3F303130C4C0F
:10388000E15C094B1B68CB40074C236010BD000076
:1038900000100240002002400000FFF8FFFFF6FE8B
:1038A00008ED00E000127A004000002000093D0011
:1038B000440000200948804709480047FEE7FEE72A
:1038C000FEE7FEE7FEE7FEE7FEE7FEE7FEE7FEE7D0
:1038D00004480549054A064B70470000B337000805
:1038E000ED00000828010020280700202803002000
:1038F0002803002070B5064600F09AF8056806F126
:103900000B0020F00704B4429CBF002070BD2B4682
:103910006A68BAB11068A04210D304F10801884265
:103920003CBF5068586007D3516810194160116856
:10393000091B016058601460101D70BD1346526869
:10394000002AE7D12146284600F07AF80028DED187
:1039500070BD70B50446051F00F06AF80068002CC1
:1039600014BF446870BD002C18BFAC423CBF204659
:103970006468F8D301680A18AA4218BF456003D1E9
:103980002A6805461144016028684119A1421CBFFC
:103990006C6070BD6168696021680844286070BD12
:1039A000032A40F2308010F0030C00F0158011F86B
:1039B000013BBCF1020F624498BF11F801CB00F843
:1039C000013B38BF11F8013BA2F1040298BF00F897
:1039D00001CB38BF00F8013B11F0030300F07A80FF
:1039E000083AC0F0088051F8043B083A51F804CB7B
:1039F000A0E80810F5E7121D5CBF51F8043B40F841
:103A0000043BAFF30080D20724BF11F8013B11F84B
:103A100001CB48BF11F8012B24BF00F8013B00F88F
:103A200001CB48BF00F8012B7047704770477047C3
:103A300000487047CC0000207047704770477047BF
:103A400038B504460A4600206946AFF300800028D6
:103A500008BF38BD02460099204600F071F80120E9
:103A600038BD012000F086B8F8B5AFF300800546F8
:103A700000200C46102000BF0646A819A0420DD910
:103A8000324669460020AFF30080070008BF00F00F
:103A900071F80098A04218BF0546C419FFF7C8FF87
:103AA00005600746F01D20F007004619284600F083
:103AB0000AF8B44208BFF8BDA21B31463868BDE819
:103AC000F84000F03DB800210160C0E901107047E6
:103AD0001020704710B5203AC0F00B80B1E81850A4
:103AE000203AA0E81850B1E81850A0E81850BFF4E8
:103AF000F5AF5FEA027C24BFB1E81850A0E8185087
:103B000044BF18C918C0BDE810405FEA827C24BFDA
:103B100051F8043B40F8043B08BF7047D20728BF68
:103B200031F8023B48BF11F8012B28BF20F8023BB7
:103B300048BF00F8012B704700487047C4000020C0
:103B4000034640688C46002818BF88423CBF0346A5
:103B50004068F8D318681844884207D00CF1030075
:103B600020F00700001D411A521A0146081D0A6084
:103B7000FFF7EFBE10B500F035F8BDE8104000F0DB
:103B80002CB870477546FFF7D7FFAE46050069466B
:103B9000534620F00700854618B020B5FFF798FE81
:103BA000BDE820404FF000064FF000074FF000083E
:103BB0004FF0000B21F00701AC46ACE8C009ACE8BF
:103BC000C009ACE8C009ACE8C0098D46704704469E
:103BD000AFF300802046FCF7D4FA002801D000F0B3
:103BE00029B8704710B5012805D0002103A000F0C6
:103BF00027F8012010BD09A1F8E7000053494752FA
:103C0000544D454D3A204F7574206F6620686561AC
:103C100070206D656D6F7279000000003A20486574
:103C20006170206D656D6F727920636F727275704F
:103C30007465640001491820ABBEFEE7260002004F
:103C400070B505460C460A2000E06D1C00F011F826
:103C500035B128780028F8D102E0641C00F009F89A
:103C600014B120780028F8D1BDE870400A20AFF3E5
:103C7000008008B569468DF800000320ABBE08BD82
:103C8000401058BFC0F14040491058BFC1F14041F9
:103C90008142EFF300807047C10DD1F19E0206DB37
:103CA0004FEA002343F0004323FA02F0704700423A
:103CB00007D54FEA4001B1F1FE4F02D24FF00000AC
:103CC000704710B500F0BDF849922480002070477D
:103CD0006FEA20007047000050EA010C00F11380E9
:103CE0001CF5000F58BFBCF5000F01D48842704787
:103CF00007D710F5000F58BF11F5000F15D48842F3
:103D00007047894270471CF5000F04D5BCF5000FC1
:103D1000F7D5814270474FF0807C1CEB400F38BFD5
:103D20001CEB410F01D28142704710B500F089F8B9
:103D3000922449004FF000504FF08051FFF7A0BF90
:103D40004FF47F0C1CEAD0121EBF1CEAD11392EA7A
:103D50000C0F93EA0C0F00F0478090EA010F48BF68
:103D600042F480724FF0004C4CEA00204CEA0121F2
:103D700002EB0302A0FB0113A2F50002002918BF09
:103D800043F001035B0028BF4FEA330342EB2242BA
:103D90005FEA132C4CEBC2502EBFBCEB436FB2F565
:103DA0007C0F70474FEA036CBCF1004F08BF20F056
:103DB0000100B2F57C0F38BF70470BD582F0FF02CF
:103DC00012F5803FC8BF704700F1C040D8BF00F077
:103DD0000040704700F5000C5FEA4C0C48BF70478C
:103DE000B0F1C04000F073B890EA010F0CEAD113B3
:103DF00048BF42F48072624538BF634504D280EA0E
:103E0000010000F00040704710B500F01AF800BF44
:103E10008900013E00F007B800F009B85FEA410CE4
:103E20005FEA1C6C08D080EA010000F050B85FEA3D
:103E3000400C5FEA1C6CF6D14FF00040A0F580000A
:103E400070470EF1020E2EF0030E5EF8044B244272
:103E500004D44FEA4102B2F17F4F11D84FEA400338
:103E6000B3F17F4F0CD80ED14FEAD07CB2F17F4F27
:103E70000CEB4C0C0CF1020C08BF4CEBD17C04E0B9
:103E80004FF0080C01E04FEAD17C0CEB4C0324FA14
:103E900003F404F00704B4F1040C06D20EEB840C16
:103EA000BDE810404CF0010C6047DFE80CF007085B
:103EB00002024FF00040A0F5800010BD084642000D
:103EC00018BFD2F1807288BF00F0004010BDFF2102
:103ED00041EAD050C005704751EA000C00F1138050
:103EE0001CF5000F58BFBCF5000F01D4814270478C
:103EF00007D711F5000F58BF10F5000F15D48142F8
:103F00007047894270471CF5000F04D5BCF5000FBF
:103F1000F7D5884270474FF0807C1CEB410F38BFCB
:103F20001CEB400F01D28842704780EA010081EA11
:103F3000000180EA0100FFF7F8BE3031323334353A
:103F40003637383900000000683F000800000020C4
:103F50005400000028010008BC3F00085400002065
:103F6000D4060000440100080100000000D020E059
:103F7000A030D020E0A0300000001122334455666C
:103F80007788000000000000000000000000000032
:103F90000000000000000001020304010203040607
:103FA000070809020406080000A24A0400000000F5
:0C3FB000000000000102030406070809DD
:020000040800F2
:08E000004D65616E6F00000028
:04000005080000ED02
:00000001FF
